{
    "_format": "hh-sol-artifact-1",
    "contractName": "EhisabERC721",
    "sourceName": "contracts/erc721/EhisabERC721.sol",
    "abi": [
        {
            "anonymous": false,
            "inputs": [
                {
                    "indexed": false,
                    "internalType": "address",
                    "name": "newWhitelistAddress",
                    "type": "address"
                }
            ],
            "name": "AddressAddedToWhitelist",
            "type": "event"
        },
        {
            "anonymous": false,
            "inputs": [
                {
                    "indexed": false,
                    "internalType": "address",
                    "name": "removedWhitelistAddress",
                    "type": "address"
                }
            ],
            "name": "AddressRemovedFromWhitelist",
            "type": "event"
        },
        {
            "anonymous": false,
            "inputs": [
                {
                    "indexed": true,
                    "internalType": "address",
                    "name": "owner",
                    "type": "address"
                },
                {
                    "indexed": true,
                    "internalType": "address",
                    "name": "approved",
                    "type": "address"
                },
                {
                    "indexed": true,
                    "internalType": "uint256",
                    "name": "tokenId",
                    "type": "uint256"
                }
            ],
            "name": "Approval",
            "type": "event"
        },
        {
            "anonymous": false,
            "inputs": [
                {
                    "indexed": true,
                    "internalType": "address",
                    "name": "owner",
                    "type": "address"
                },
                {
                    "indexed": true,
                    "internalType": "address",
                    "name": "operator",
                    "type": "address"
                },
                {
                    "indexed": false,
                    "internalType": "bool",
                    "name": "approved",
                    "type": "bool"
                }
            ],
            "name": "ApprovalForAll",
            "type": "event"
        },
        {
            "anonymous": false,
            "inputs": [
                {
                    "indexed": false,
                    "internalType": "uint8",
                    "name": "version",
                    "type": "uint8"
                }
            ],
            "name": "Initialized",
            "type": "event"
        },
        {
            "anonymous": false,
            "inputs": [
                {
                    "indexed": true,
                    "internalType": "address",
                    "name": "from",
                    "type": "address"
                },
                {
                    "indexed": true,
                    "internalType": "address",
                    "name": "to",
                    "type": "address"
                },
                {
                    "indexed": true,
                    "internalType": "uint256",
                    "name": "tokenId",
                    "type": "uint256"
                }
            ],
            "name": "Transfer",
            "type": "event"
        },
        {
            "inputs": [
                {
                    "internalType": "address",
                    "name": "addr",
                    "type": "address"
                }
            ],
            "name": "addAddressToWhitelist",
            "outputs": [],
            "stateMutability": "nonpayable",
            "type": "function"
        },
        {
            "inputs": [
                {
                    "internalType": "address",
                    "name": "to",
                    "type": "address"
                },
                {
                    "internalType": "uint256",
                    "name": "tokenId",
                    "type": "uint256"
                }
            ],
            "name": "approve",
            "outputs": [],
            "stateMutability": "nonpayable",
            "type": "function"
        },
        {
            "inputs": [
                {
                    "internalType": "address",
                    "name": "owner",
                    "type": "address"
                }
            ],
            "name": "balanceOf",
            "outputs": [
                {
                    "internalType": "uint256",
                    "name": "",
                    "type": "uint256"
                }
            ],
            "stateMutability": "view",
            "type": "function"
        },
        {
            "inputs": [
                {
                    "internalType": "uint256",
                    "name": "tokenId",
                    "type": "uint256"
                }
            ],
            "name": "getApproved",
            "outputs": [
                {
                    "internalType": "address",
                    "name": "",
                    "type": "address"
                }
            ],
            "stateMutability": "view",
            "type": "function"
        },
        {
            "inputs": [
                {
                    "internalType": "string",
                    "name": "_name",
                    "type": "string"
                },
                {
                    "internalType": "string",
                    "name": "_symbol",
                    "type": "string"
                },
                {
                    "internalType": "string",
                    "name": "_newBaseURI",
                    "type": "string"
                },
                {
                    "internalType": "address[]",
                    "name": "_whitelistAddresses",
                    "type": "address[]"
                }
            ],
            "name": "initialize",
            "outputs": [],
            "stateMutability": "nonpayable",
            "type": "function"
        },
        {
            "inputs": [
                {
                    "internalType": "address",
                    "name": "owner",
                    "type": "address"
                },
                {
                    "internalType": "address",
                    "name": "operator",
                    "type": "address"
                }
            ],
            "name": "isApprovedForAll",
            "outputs": [
                {
                    "internalType": "bool",
                    "name": "",
                    "type": "bool"
                }
            ],
            "stateMutability": "view",
            "type": "function"
        },
        {
            "inputs": [
                {
                    "internalType": "string",
                    "name": "_currTokenURI",
                    "type": "string"
                },
                {
                    "internalType": "uint256",
                    "name": "royaltyValue",
                    "type": "uint256"
                }
            ],
            "name": "mint",
            "outputs": [
                {
                    "internalType": "uint256",
                    "name": "",
                    "type": "uint256"
                }
            ],
            "stateMutability": "nonpayable",
            "type": "function"
        },
        {
            "inputs": [],
            "name": "name",
            "outputs": [
                {
                    "internalType": "string",
                    "name": "",
                    "type": "string"
                }
            ],
            "stateMutability": "view",
            "type": "function"
        },
        {
            "inputs": [
                {
                    "internalType": "uint256",
                    "name": "tokenId",
                    "type": "uint256"
                }
            ],
            "name": "ownerOf",
            "outputs": [
                {
                    "internalType": "address",
                    "name": "",
                    "type": "address"
                }
            ],
            "stateMutability": "view",
            "type": "function"
        },
        {
            "inputs": [
                {
                    "internalType": "address",
                    "name": "addr",
                    "type": "address"
                }
            ],
            "name": "removeAddressFromWhitelist",
            "outputs": [],
            "stateMutability": "nonpayable",
            "type": "function"
        },
        {
            "inputs": [
                {
                    "internalType": "uint256",
                    "name": "tokenId",
                    "type": "uint256"
                },
                {
                    "internalType": "uint256",
                    "name": "value",
                    "type": "uint256"
                }
            ],
            "name": "royaltyInfo",
            "outputs": [
                {
                    "internalType": "address",
                    "name": "receiver",
                    "type": "address"
                },
                {
                    "internalType": "uint256",
                    "name": "royaltyAmount",
                    "type": "uint256"
                }
            ],
            "stateMutability": "view",
            "type": "function"
        },
        {
            "inputs": [
                {
                    "internalType": "address",
                    "name": "from",
                    "type": "address"
                },
                {
                    "internalType": "address",
                    "name": "to",
                    "type": "address"
                },
                {
                    "internalType": "uint256",
                    "name": "tokenId",
                    "type": "uint256"
                }
            ],
            "name": "safeTransferFrom",
            "outputs": [],
            "stateMutability": "nonpayable",
            "type": "function"
        },
        {
            "inputs": [
                {
                    "internalType": "address",
                    "name": "from",
                    "type": "address"
                },
                {
                    "internalType": "address",
                    "name": "to",
                    "type": "address"
                },
                {
                    "internalType": "uint256",
                    "name": "tokenId",
                    "type": "uint256"
                },
                {
                    "internalType": "bytes",
                    "name": "data",
                    "type": "bytes"
                }
            ],
            "name": "safeTransferFrom",
            "outputs": [],
            "stateMutability": "nonpayable",
            "type": "function"
        },
        {
            "inputs": [
                {
                    "internalType": "address",
                    "name": "operator",
                    "type": "address"
                },
                {
                    "internalType": "bool",
                    "name": "approved",
                    "type": "bool"
                }
            ],
            "name": "setApprovalForAll",
            "outputs": [],
            "stateMutability": "nonpayable",
            "type": "function"
        },
        {
            "inputs": [
                {
                    "internalType": "bytes4",
                    "name": "interfaceId",
                    "type": "bytes4"
                }
            ],
            "name": "supportsInterface",
            "outputs": [
                {
                    "internalType": "bool",
                    "name": "",
                    "type": "bool"
                }
            ],
            "stateMutability": "view",
            "type": "function"
        },
        {
            "inputs": [],
            "name": "symbol",
            "outputs": [
                {
                    "internalType": "string",
                    "name": "",
                    "type": "string"
                }
            ],
            "stateMutability": "view",
            "type": "function"
        },
        {
            "inputs": [
                {
                    "internalType": "uint256",
                    "name": "tokenId",
                    "type": "uint256"
                }
            ],
            "name": "tokenURI",
            "outputs": [
                {
                    "internalType": "string",
                    "name": "",
                    "type": "string"
                }
            ],
            "stateMutability": "view",
            "type": "function"
        },
        {
            "inputs": [
                {
                    "internalType": "address",
                    "name": "from",
                    "type": "address"
                },
                {
                    "internalType": "address",
                    "name": "to",
                    "type": "address"
                },
                {
                    "internalType": "uint256",
                    "name": "tokenId",
                    "type": "uint256"
                }
            ],
            "name": "transferFrom",
            "outputs": [],
            "stateMutability": "nonpayable",
            "type": "function"
        }
    ],
    "bytecode": "0x608060405234801561001057600080fd5b50611e19806100206000396000f3fe608060405234801561001057600080fd5b50600436106101165760003560e01c80636352211e116100a257806395d89b411161007157806395d89b4114610270578063a22cb46514610278578063b88d4fde1461028b578063c87b56dd1461029e578063e985e9c5146102b157600080fd5b80636352211e1461022457806370a08231146102375780637b9417c81461024a5780638d2320941461025d57600080fd5b8063095ea7b3116100e9578063095ea7b3146101a457806323b872dd146101b9578063286dd3f5146101cc5780632a55205a146101df57806342842e0e1461021157600080fd5b806301ffc9a71461011b578063056b01ce1461014357806306fdde0314610164578063081812fc14610179575b600080fd5b61012e6101293660046116b1565b6102ed565b60405190151581526020015b60405180910390f35b61015661015136600461178d565b610318565b60405190815260200161013a565b61016c6103ba565b60405161013a919061182a565b61018c61018736600461183d565b61044c565b6040516001600160a01b03909116815260200161013a565b6101b76101b2366004611872565b610473565b005b6101b76101c736600461189c565b610588565b6101b76101da3660046118d8565b6105b9565b6101f26101ed3660046118f3565b610669565b604080516001600160a01b03909316835260208301919091520161013a565b6101b761021f36600461189c565b6106c7565b61018c61023236600461183d565b6106e2565b6101566102453660046118d8565b610742565b6101b76102583660046118d8565b6107c8565b6101b761026b366004611915565b610874565b61016c610969565b6101b7610286366004611a2b565b610978565b6101b7610299366004611a67565b610987565b61016c6102ac36600461183d565b6109bf565b61012e6102bf366004611ae3565b6001600160a01b039182166000908152606b6020908152604080832093909416825291909152205460ff1690565b60006001600160e01b0319821663152a902d60e11b1480610312575061031282610acf565b92915050565b600082516000036103705760405162461bcd60e51b815260206004820152601960248201527f546f6b656e205552492063616e6e6f7420626520656d7074790000000000000060448201526064015b60405180910390fd5b61037e60cb80546001019055565b61038a3360cb54610ada565b61039c61039660cb5490565b84610c1c565b6103af6103a860cb5490565b3384610cb6565b60cb545b9392505050565b6060606680546103c990611b16565b80601f01602080910402602001604051908101604052809291908181526020018280546103f590611b16565b80156104425780601f1061041757610100808354040283529160200191610442565b820191906000526020600020905b81548152906001019060200180831161042557829003601f168201915b5050505050905090565b600061045782610d5f565b506000908152606a60205260409020546001600160a01b031690565b600061047e826106e2565b9050806001600160a01b0316836001600160a01b0316036104eb5760405162461bcd60e51b815260206004820152602160248201527f4552433732313a20617070726f76616c20746f2063757272656e74206f776e656044820152603960f91b6064820152608401610367565b336001600160a01b0382161480610507575061050781336102bf565b6105795760405162461bcd60e51b815260206004820152603e60248201527f4552433732313a20617070726f76652063616c6c6572206973206e6f7420746f60448201527f6b656e206f776e6572206e6f7220617070726f76656420666f7220616c6c00006064820152608401610367565b6105838383610dc1565b505050565b6105923382610e2f565b6105ae5760405162461bcd60e51b815260040161036790611b50565b610583838383610ead565b3360009081526033602052604090205460ff166106115760405162461bcd60e51b815260206004820152601660248201527529b2b73232b91034b9903737ba1030b71020b236b4b760511b6044820152606401610367565b6001600160a01b038116600081815260336020908152604091829020805460ff1916905590519182527f535611fb62fa2a833988f283b779e417e996813e44046f521d76c17b5943b08c91015b60405180910390a150565b600082815260ca602090815260408083208151808301909252546001600160a01b038116808352600160a01b90910462ffffff169282018390529291612710906106b39086611bb4565b6106bd9190611be9565b9150509250929050565b61058383838360405180602001604052806000815250610987565b6000818152606860205260408120546001600160a01b0316806103125760405162461bcd60e51b8152602060048201526018602482015277115490cdcc8c4e881a5b9d985b1a59081d1bdad95b88125160421b6044820152606401610367565b60006001600160a01b0382166107ac5760405162461bcd60e51b815260206004820152602960248201527f4552433732313a2061646472657373207a65726f206973206e6f7420612076616044820152683634b21037bbb732b960b91b6064820152608401610367565b506001600160a01b031660009081526069602052604090205490565b3360009081526033602052604090205460ff166108205760405162461bcd60e51b815260206004820152601660248201527529b2b73232b91034b9903737ba1030b71020b236b4b760511b6044820152606401610367565b6001600160a01b038116600081815260336020908152604091829020805460ff1916600117905590519182527f534d18c8ff24ba5980906d732f3075704749427353734fbbf05d50485643b124910161065e565b600054610100900460ff16158080156108945750600054600160ff909116105b806108ae5750303b1580156108ae575060005460ff166001145b6108ca5760405162461bcd60e51b815260040161036790611bfd565b6000805460ff1916600117905580156108ed576000805461ff0019166101001790555b6108f78585611049565b6109008261107a565b6109086111c5565b825161091b9060cc906020860190611602565b508015610962576000805461ff0019169055604051600181527f7f26b83ff96e1f2b6a682f133852f6798a09c465da95921460cefb38474024989060200160405180910390a15b5050505050565b6060606780546103c990611b16565b6109833383836111ee565b5050565b6109913383610e2f565b6109ad5760405162461bcd60e51b815260040161036790611b50565b6109b9848484846112bc565b50505050565b60606109ca82610d5f565b600082815260986020526040812080546109e390611b16565b80601f0160208091040260200160405190810160405280929190818152602001828054610a0f90611b16565b8015610a5c5780601f10610a3157610100808354040283529160200191610a5c565b820191906000526020600020905b815481529060010190602001808311610a3f57829003601f168201915b505050505090506000610a7a60408051602081019091526000815290565b90508051600003610a8c575092915050565b815115610abe578082604051602001610aa6929190611c4b565b60405160208183030381529060405292505050919050565b610ac7846112ef565b949350505050565b600061031282611362565b6001600160a01b038216610b305760405162461bcd60e51b815260206004820181905260248201527f4552433732313a206d696e7420746f20746865207a65726f20616464726573736044820152606401610367565b6000818152606860205260409020546001600160a01b031615610b955760405162461bcd60e51b815260206004820152601c60248201527f4552433732313a20746f6b656e20616c7265616479206d696e746564000000006044820152606401610367565b6001600160a01b0382166000908152606960205260408120805460019290610bbe908490611c7a565b909155505060008181526068602052604080822080546001600160a01b0319166001600160a01b03861690811790915590518392907fddf252ad1be2c89b69c2b068fc378daa952ba7f163c4a11628f55a4df523b3ef908290a45050565b6000828152606860205260409020546001600160a01b0316610c975760405162461bcd60e51b815260206004820152602e60248201527f45524337323155524953746f726167653a2055524920736574206f66206e6f6e60448201526d32bc34b9ba32b73a103a37b5b2b760911b6064820152608401610367565b6000828152609860209081526040909120825161058392840190611602565b612710811115610d085760405162461bcd60e51b815260206004820152601a60248201527f45524332393831526f79616c746965733a20546f6f20686967680000000000006044820152606401610367565b6040805180820182526001600160a01b03938416815262ffffff9283166020808301918252600096875260ca905291909420935184549151909216600160a01b026001600160b81b03199091169190921617179055565b6000818152606860205260409020546001600160a01b0316610dbe5760405162461bcd60e51b8152602060048201526018602482015277115490cdcc8c4e881a5b9d985b1a59081d1bdad95b88125160421b6044820152606401610367565b50565b6000818152606a6020526040902080546001600160a01b0319166001600160a01b0384169081179091558190610df6826106e2565b6001600160a01b03167f8c5be1e5ebec7d5bd14f71427d1e84f3dd0314c0f7b2291e5b200ac8c7c3b92560405160405180910390a45050565b600080610e3b836106e2565b9050806001600160a01b0316846001600160a01b03161480610e8257506001600160a01b038082166000908152606b602090815260408083209388168352929052205460ff165b80610ac75750836001600160a01b0316610e9b8461044c565b6001600160a01b031614949350505050565b826001600160a01b0316610ec0826106e2565b6001600160a01b031614610f245760405162461bcd60e51b815260206004820152602560248201527f4552433732313a207472616e736665722066726f6d20696e636f72726563742060448201526437bbb732b960d91b6064820152608401610367565b6001600160a01b038216610f865760405162461bcd60e51b8152602060048201526024808201527f4552433732313a207472616e7366657220746f20746865207a65726f206164646044820152637265737360e01b6064820152608401610367565b610f91600082610dc1565b6001600160a01b0383166000908152606960205260408120805460019290610fba908490611c92565b90915550506001600160a01b0382166000908152606960205260408120805460019290610fe8908490611c7a565b909155505060008181526068602052604080822080546001600160a01b0319166001600160a01b0386811691821790925591518493918716917fddf252ad1be2c89b69c2b068fc378daa952ba7f163c4a11628f55a4df523b3ef91a4505050565b600054610100900460ff166110705760405162461bcd60e51b815260040161036790611ca9565b61098382826113b2565b600054610100900460ff161580801561109a5750600054600160ff909116105b806110b45750303b1580156110b4575060005460ff166001145b6110d05760405162461bcd60e51b815260040161036790611bfd565b6000805460ff1916600117905580156110f3576000805461ff0019166101001790555b6110fb6111c5565b336000908152603360205260408120805460ff191660011790555b825181101561117b5760016033600085848151811061113757611137611cf4565b6020908102919091018101516001600160a01b03168252810191909152604001600020805460ff19169115159190911790558061117381611d0a565b915050611116565b508015610983576000805461ff0019169055604051600181527f7f26b83ff96e1f2b6a682f133852f6798a09c465da95921460cefb38474024989060200160405180910390a15050565b600054610100900460ff166111ec5760405162461bcd60e51b815260040161036790611ca9565b565b816001600160a01b0316836001600160a01b03160361124f5760405162461bcd60e51b815260206004820152601960248201527f4552433732313a20617070726f766520746f2063616c6c6572000000000000006044820152606401610367565b6001600160a01b038381166000818152606b6020908152604080832094871680845294825291829020805460ff191686151590811790915591519182527f17307eab39ab6107e8899845ad3d59bd9653f200f220920489ca2b5937696c31910160405180910390a3505050565b6112c7848484610ead565b6112d384848484611400565b6109b95760405162461bcd60e51b815260040161036790611d23565b60606112fa82610d5f565b600061131160408051602081019091526000815290565b9050600081511161133157604051806020016040528060008152506103b3565b8061133b84611501565b60405160200161134c929190611c4b565b6040516020818303038152906040529392505050565b60006001600160e01b031982166380ac58cd60e01b148061139357506001600160e01b03198216635b5e139f60e01b145b8061031257506301ffc9a760e01b6001600160e01b0319831614610312565b600054610100900460ff166113d95760405162461bcd60e51b815260040161036790611ca9565b81516113ec906066906020850190611602565b508051610583906067906020840190611602565b60006001600160a01b0384163b156114f657604051630a85bd0160e11b81526001600160a01b0385169063150b7a0290611444903390899088908890600401611d75565b6020604051808303816000875af192505050801561147f575060408051601f3d908101601f1916820190925261147c91810190611db2565b60015b6114dc573d8080156114ad576040519150601f19603f3d011682016040523d82523d6000602084013e6114b2565b606091505b5080516000036114d45760405162461bcd60e51b815260040161036790611d23565b805181602001fd5b6001600160e01b031916630a85bd0160e11b149050610ac7565b506001949350505050565b6060816000036115285750506040805180820190915260018152600360fc1b602082015290565b8160005b8115611552578061153c81611d0a565b915061154b9050600a83611be9565b915061152c565b60008167ffffffffffffffff81111561156d5761156d6116ce565b6040519080825280601f01601f191660200182016040528015611597576020820181803683370190505b5090505b8415610ac7576115ac600183611c92565b91506115b9600a86611dcf565b6115c4906030611c7a565b60f81b8183815181106115d9576115d9611cf4565b60200101906001600160f81b031916908160001a9053506115fb600a86611be9565b945061159b565b82805461160e90611b16565b90600052602060002090601f0160209004810192826116305760008555611676565b82601f1061164957805160ff1916838001178555611676565b82800160010185558215611676579182015b8281111561167657825182559160200191906001019061165b565b50611682929150611686565b5090565b5b808211156116825760008155600101611687565b6001600160e01b031981168114610dbe57600080fd5b6000602082840312156116c357600080fd5b81356103b38161169b565b634e487b7160e01b600052604160045260246000fd5b604051601f8201601f1916810167ffffffffffffffff8111828210171561170d5761170d6116ce565b604052919050565b600067ffffffffffffffff83111561172f5761172f6116ce565b611742601f8401601f19166020016116e4565b905082815283838301111561175657600080fd5b828260208301376000602084830101529392505050565b600082601f83011261177e57600080fd5b6103b383833560208501611715565b600080604083850312156117a057600080fd5b823567ffffffffffffffff8111156117b757600080fd5b6117c38582860161176d565b95602094909401359450505050565b60005b838110156117ed5781810151838201526020016117d5565b838111156109b95750506000910152565b600081518084526118168160208601602086016117d2565b601f01601f19169290920160200192915050565b6020815260006103b360208301846117fe565b60006020828403121561184f57600080fd5b5035919050565b80356001600160a01b038116811461186d57600080fd5b919050565b6000806040838503121561188557600080fd5b61188e83611856565b946020939093013593505050565b6000806000606084860312156118b157600080fd5b6118ba84611856565b92506118c860208501611856565b9150604084013590509250925092565b6000602082840312156118ea57600080fd5b6103b382611856565b6000806040838503121561190657600080fd5b50508035926020909101359150565b6000806000806080858703121561192b57600080fd5b843567ffffffffffffffff8082111561194357600080fd5b61194f8883890161176d565b955060209150818701358181111561196657600080fd5b61197289828a0161176d565b95505060408701358181111561198757600080fd5b61199389828a0161176d565b9450506060870135818111156119a857600080fd5b8701601f810189136119b957600080fd5b8035828111156119cb576119cb6116ce565b8060051b92506119dc8484016116e4565b818152928201840192848101908b8511156119f657600080fd5b928501925b84841015611a1b57611a0c84611856565b825292850192908501906119fb565b989b979a50959850505050505050565b60008060408385031215611a3e57600080fd5b611a4783611856565b915060208301358015158114611a5c57600080fd5b809150509250929050565b60008060008060808587031215611a7d57600080fd5b611a8685611856565b9350611a9460208601611856565b925060408501359150606085013567ffffffffffffffff811115611ab757600080fd5b8501601f81018713611ac857600080fd5b611ad787823560208401611715565b91505092959194509250565b60008060408385031215611af657600080fd5b611aff83611856565b9150611b0d60208401611856565b90509250929050565b600181811c90821680611b2a57607f821691505b602082108103611b4a57634e487b7160e01b600052602260045260246000fd5b50919050565b6020808252602e908201527f4552433732313a2063616c6c6572206973206e6f7420746f6b656e206f776e6560408201526d1c881b9bdc88185c1c1c9bdd995960921b606082015260800190565b634e487b7160e01b600052601160045260246000fd5b6000816000190483118215151615611bce57611bce611b9e565b500290565b634e487b7160e01b600052601260045260246000fd5b600082611bf857611bf8611bd3565b500490565b6020808252602e908201527f496e697469616c697a61626c653a20636f6e747261637420697320616c72656160408201526d191e481a5b9a5d1a585b1a5e995960921b606082015260800190565b60008351611c5d8184602088016117d2565b835190830190611c718183602088016117d2565b01949350505050565b60008219821115611c8d57611c8d611b9e565b500190565b600082821015611ca457611ca4611b9e565b500390565b6020808252602b908201527f496e697469616c697a61626c653a20636f6e7472616374206973206e6f74206960408201526a6e697469616c697a696e6760a81b606082015260800190565b634e487b7160e01b600052603260045260246000fd5b600060018201611d1c57611d1c611b9e565b5060010190565b60208082526032908201527f4552433732313a207472616e7366657220746f206e6f6e20455243373231526560408201527131b2b4bb32b91034b6b83632b6b2b73a32b960711b606082015260800190565b6001600160a01b0385811682528416602082015260408101839052608060608201819052600090611da8908301846117fe565b9695505050505050565b600060208284031215611dc457600080fd5b81516103b38161169b565b600082611dde57611dde611bd3565b50069056fea26469706673582212206cf2f39d424af332ef149d3a493c01bbe9e35624bd48db11c07c7a10b4b9765564736f6c634300080e0033",
    "linkReferences": {},
    "deployedLinkReferences": {}
}