{
    "_format": "hh-sol-artifact-1",
    "contractName": "EhisabERC1155",
    "sourceName": "contracts/erc1155/EhisabERC1155.sol",
    "abi": [
        {
            "anonymous": false,
            "inputs": [
                {
                    "indexed": true,
                    "internalType": "address",
                    "name": "account",
                    "type": "address"
                },
                {
                    "indexed": true,
                    "internalType": "address",
                    "name": "operator",
                    "type": "address"
                },
                {
                    "indexed": false,
                    "internalType": "bool",
                    "name": "approved",
                    "type": "bool"
                }
            ],
            "name": "ApprovalForAll",
            "type": "event"
        },
        {
            "anonymous": false,
            "inputs": [
                {
                    "indexed": false,
                    "internalType": "uint256",
                    "name": "erc1155TokenId",
                    "type": "uint256"
                },
                {
                    "indexed": false,
                    "internalType": "address",
                    "name": "erc721ContractAddress",
                    "type": "address"
                },
                {
                    "indexed": false,
                    "internalType": "uint256",
                    "name": "erc721TokenId",
                    "type": "uint256"
                },
                {
                    "indexed": false,
                    "internalType": "uint256",
                    "name": "totalFractionsAmount",
                    "type": "uint256"
                },
                {
                    "indexed": false,
                    "internalType": "string",
                    "name": "tokenURI",
                    "type": "string"
                }
            ],
            "name": "DepositNft",
            "type": "event"
        },
        {
            "anonymous": false,
            "inputs": [
                {
                    "indexed": false,
                    "internalType": "uint8",
                    "name": "version",
                    "type": "uint8"
                }
            ],
            "name": "Initialized",
            "type": "event"
        },
        {
            "anonymous": false,
            "inputs": [
                {
                    "indexed": true,
                    "internalType": "address",
                    "name": "previousOwner",
                    "type": "address"
                },
                {
                    "indexed": true,
                    "internalType": "address",
                    "name": "newOwner",
                    "type": "address"
                }
            ],
            "name": "OwnershipTransferred",
            "type": "event"
        },
        {
            "anonymous": false,
            "inputs": [
                {
                    "indexed": false,
                    "internalType": "address",
                    "name": "account",
                    "type": "address"
                }
            ],
            "name": "Paused",
            "type": "event"
        },
        {
            "anonymous": false,
            "inputs": [
                {
                    "indexed": true,
                    "internalType": "address",
                    "name": "operator",
                    "type": "address"
                },
                {
                    "indexed": true,
                    "internalType": "address",
                    "name": "from",
                    "type": "address"
                },
                {
                    "indexed": true,
                    "internalType": "address",
                    "name": "to",
                    "type": "address"
                },
                {
                    "indexed": false,
                    "internalType": "uint256[]",
                    "name": "ids",
                    "type": "uint256[]"
                },
                {
                    "indexed": false,
                    "internalType": "uint256[]",
                    "name": "values",
                    "type": "uint256[]"
                }
            ],
            "name": "TransferBatch",
            "type": "event"
        },
        {
            "anonymous": false,
            "inputs": [
                {
                    "indexed": true,
                    "internalType": "address",
                    "name": "operator",
                    "type": "address"
                },
                {
                    "indexed": true,
                    "internalType": "address",
                    "name": "from",
                    "type": "address"
                },
                {
                    "indexed": true,
                    "internalType": "address",
                    "name": "to",
                    "type": "address"
                },
                {
                    "indexed": false,
                    "internalType": "uint256",
                    "name": "id",
                    "type": "uint256"
                },
                {
                    "indexed": false,
                    "internalType": "uint256",
                    "name": "value",
                    "type": "uint256"
                }
            ],
            "name": "TransferSingle",
            "type": "event"
        },
        {
            "anonymous": false,
            "inputs": [
                {
                    "indexed": false,
                    "internalType": "string",
                    "name": "value",
                    "type": "string"
                },
                {
                    "indexed": true,
                    "internalType": "uint256",
                    "name": "id",
                    "type": "uint256"
                }
            ],
            "name": "URI",
            "type": "event"
        },
        {
            "anonymous": false,
            "inputs": [
                {
                    "indexed": false,
                    "internalType": "address",
                    "name": "account",
                    "type": "address"
                }
            ],
            "name": "Unpaused",
            "type": "event"
        },
        {
            "anonymous": false,
            "inputs": [
                {
                    "indexed": false,
                    "internalType": "uint256",
                    "name": "erc1155TokenId",
                    "type": "uint256"
                },
                {
                    "indexed": false,
                    "internalType": "address",
                    "name": "erc721ContractAddress",
                    "type": "address"
                },
                {
                    "indexed": false,
                    "internalType": "uint256",
                    "name": "erc721TokenId",
                    "type": "uint256"
                }
            ],
            "name": "WithdrawNft",
            "type": "event"
        },
        {
            "inputs": [
                {
                    "internalType": "address",
                    "name": "account",
                    "type": "address"
                },
                {
                    "internalType": "uint256",
                    "name": "id",
                    "type": "uint256"
                }
            ],
            "name": "balanceOf",
            "outputs": [
                {
                    "internalType": "uint256",
                    "name": "",
                    "type": "uint256"
                }
            ],
            "stateMutability": "view",
            "type": "function"
        },
        {
            "inputs": [
                {
                    "internalType": "address[]",
                    "name": "accounts",
                    "type": "address[]"
                },
                {
                    "internalType": "uint256[]",
                    "name": "ids",
                    "type": "uint256[]"
                }
            ],
            "name": "balanceOfBatch",
            "outputs": [
                {
                    "internalType": "uint256[]",
                    "name": "",
                    "type": "uint256[]"
                }
            ],
            "stateMutability": "view",
            "type": "function"
        },
        {
            "inputs": [
                {
                    "internalType": "uint256",
                    "name": "tokenId",
                    "type": "uint256"
                },
                {
                    "internalType": "uint256",
                    "name": "amount",
                    "type": "uint256"
                },
                {
                    "internalType": "address",
                    "name": "transferer",
                    "type": "address"
                }
            ],
            "name": "burn",
            "outputs": [],
            "stateMutability": "nonpayable",
            "type": "function"
        },
        {
            "inputs": [
                {
                    "internalType": "address",
                    "name": "erc721ContractAddress",
                    "type": "address"
                },
                {
                    "internalType": "uint256",
                    "name": "erc721TokenId",
                    "type": "uint256"
                },
                {
                    "internalType": "uint256",
                    "name": "fractionsAmountToMint",
                    "type": "uint256"
                }
            ],
            "name": "depositNft",
            "outputs": [],
            "stateMutability": "nonpayable",
            "type": "function"
        },
        {
            "inputs": [
                {
                    "internalType": "uint256",
                    "name": "_tokenId",
                    "type": "uint256"
                }
            ],
            "name": "getErc721ContractAddress",
            "outputs": [
                {
                    "internalType": "address",
                    "name": "",
                    "type": "address"
                }
            ],
            "stateMutability": "view",
            "type": "function"
        },
        {
            "inputs": [
                {
                    "internalType": "uint256",
                    "name": "_tokenId",
                    "type": "uint256"
                }
            ],
            "name": "getTokenData",
            "outputs": [
                {
                    "internalType": "address",
                    "name": "erc721ContractAddress",
                    "type": "address"
                },
                {
                    "internalType": "uint256",
                    "name": "erc721TokenId",
                    "type": "uint256"
                },
                {
                    "internalType": "uint256",
                    "name": "totalFractionsAmount",
                    "type": "uint256"
                },
                {
                    "internalType": "string",
                    "name": "tokenURI",
                    "type": "string"
                }
            ],
            "stateMutability": "view",
            "type": "function"
        },
        {
            "inputs": [
                {
                    "internalType": "uint256",
                    "name": "_tokenId",
                    "type": "uint256"
                }
            ],
            "name": "getTotalFractionsAmount",
            "outputs": [
                {
                    "internalType": "uint256",
                    "name": "",
                    "type": "uint256"
                }
            ],
            "stateMutability": "view",
            "type": "function"
        },
        {
            "inputs": [
                {
                    "internalType": "string",
                    "name": "signDomain",
                    "type": "string"
                },
                {
                    "internalType": "string",
                    "name": "signVersion",
                    "type": "string"
                },
                {
                    "internalType": "string",
                    "name": "_newBaseURI",
                    "type": "string"
                }
            ],
            "name": "initialize",
            "outputs": [],
            "stateMutability": "nonpayable",
            "type": "function"
        },
        {
            "inputs": [
                {
                    "internalType": "address",
                    "name": "account",
                    "type": "address"
                },
                {
                    "internalType": "address",
                    "name": "operator",
                    "type": "address"
                }
            ],
            "name": "isApprovedForAll",
            "outputs": [
                {
                    "internalType": "bool",
                    "name": "",
                    "type": "bool"
                }
            ],
            "stateMutability": "view",
            "type": "function"
        },
        {
            "inputs": [],
            "name": "owner",
            "outputs": [
                {
                    "internalType": "address",
                    "name": "",
                    "type": "address"
                }
            ],
            "stateMutability": "view",
            "type": "function"
        },
        {
            "inputs": [],
            "name": "pause",
            "outputs": [],
            "stateMutability": "nonpayable",
            "type": "function"
        },
        {
            "inputs": [],
            "name": "paused",
            "outputs": [
                {
                    "internalType": "bool",
                    "name": "",
                    "type": "bool"
                }
            ],
            "stateMutability": "view",
            "type": "function"
        },
        {
            "inputs": [],
            "name": "renounceOwnership",
            "outputs": [],
            "stateMutability": "nonpayable",
            "type": "function"
        },
        {
            "inputs": [
                {
                    "internalType": "address",
                    "name": "from",
                    "type": "address"
                },
                {
                    "internalType": "address",
                    "name": "to",
                    "type": "address"
                },
                {
                    "internalType": "uint256[]",
                    "name": "ids",
                    "type": "uint256[]"
                },
                {
                    "internalType": "uint256[]",
                    "name": "amounts",
                    "type": "uint256[]"
                },
                {
                    "internalType": "bytes",
                    "name": "data",
                    "type": "bytes"
                }
            ],
            "name": "safeBatchTransferFrom",
            "outputs": [],
            "stateMutability": "nonpayable",
            "type": "function"
        },
        {
            "inputs": [
                {
                    "internalType": "address",
                    "name": "from",
                    "type": "address"
                },
                {
                    "internalType": "address",
                    "name": "to",
                    "type": "address"
                },
                {
                    "internalType": "uint256",
                    "name": "id",
                    "type": "uint256"
                },
                {
                    "internalType": "uint256",
                    "name": "amount",
                    "type": "uint256"
                },
                {
                    "internalType": "bytes",
                    "name": "data",
                    "type": "bytes"
                }
            ],
            "name": "safeTransferFrom",
            "outputs": [],
            "stateMutability": "nonpayable",
            "type": "function"
        },
        {
            "inputs": [
                {
                    "internalType": "address",
                    "name": "operator",
                    "type": "address"
                },
                {
                    "internalType": "bool",
                    "name": "approved",
                    "type": "bool"
                }
            ],
            "name": "setApprovalForAll",
            "outputs": [],
            "stateMutability": "nonpayable",
            "type": "function"
        },
        {
            "inputs": [
                {
                    "internalType": "bytes4",
                    "name": "interfaceId",
                    "type": "bytes4"
                }
            ],
            "name": "supportsInterface",
            "outputs": [
                {
                    "internalType": "bool",
                    "name": "",
                    "type": "bool"
                }
            ],
            "stateMutability": "view",
            "type": "function"
        },
        {
            "inputs": [
                {
                    "internalType": "address",
                    "name": "from",
                    "type": "address"
                },
                {
                    "internalType": "address",
                    "name": "to",
                    "type": "address"
                },
                {
                    "internalType": "uint256",
                    "name": "id",
                    "type": "uint256"
                },
                {
                    "internalType": "uint256",
                    "name": "amount",
                    "type": "uint256"
                },
                {
                    "internalType": "bytes",
                    "name": "data",
                    "type": "bytes"
                }
            ],
            "name": "transferFrom",
            "outputs": [],
            "stateMutability": "nonpayable",
            "type": "function"
        },
        {
            "inputs": [
                {
                    "internalType": "address",
                    "name": "newOwner",
                    "type": "address"
                }
            ],
            "name": "transferOwnership",
            "outputs": [],
            "stateMutability": "nonpayable",
            "type": "function"
        },
        {
            "inputs": [
                {
                    "internalType": "uint256",
                    "name": "tokenId",
                    "type": "uint256"
                }
            ],
            "name": "uri",
            "outputs": [
                {
                    "internalType": "string",
                    "name": "",
                    "type": "string"
                }
            ],
            "stateMutability": "view",
            "type": "function"
        },
        {
            "inputs": [
                {
                    "internalType": "uint256",
                    "name": "tokenId",
                    "type": "uint256"
                }
            ],
            "name": "withdrawNft",
            "outputs": [],
            "stateMutability": "nonpayable",
            "type": "function"
        }
    ],
    "bytecode": "0x608060405234801561001057600080fd5b506128df806100206000396000f3fe608060405234801561001057600080fd5b50600436106101365760003560e01c8063749388c4116100b8578063a6487c531161007c578063a6487c53146102b7578063b09afec1146102ca578063e09a3cb4146102ed578063e985e9c514610300578063f242432a1461033c578063f2fde38b1461034f57600080fd5b8063749388c4146102655780638456cb59146102785780638da5cb5b14610280578063910efae814610291578063a22cb465146102a457600080fd5b80634e1273f4116100ff5780634e1273f4146101dd5780635c975abb146101fd578063605105f01461020857806366d0330c1461021b578063715018a61461025d57600080fd5b8062fdd58e1461013b57806301ffc9a7146101615780630e89341c146101845780632eb2c2d6146101a457806333d59207146101b9575b600080fd5b61014e610149366004611d41565b610362565b6040519081526020015b60405180910390f35b61017461016f366004611d83565b6103fa565b6040519015158152602001610158565b610197610192366004611da7565b61044c565b6040516101589190611e18565b6101b76101b2366004611f87565b610582565b005b61014e6101c7366004611da7565b600090815261012f602052604090206002015490565b6101f06101eb366004612035565b6105ce565b604051610158919061213d565b60975460ff16610174565b6101b7610216366004612150565b6106f8565b610245610229366004611da7565b600090815261012f60205260409020546001600160a01b031690565b6040516001600160a01b039091168152602001610158565b6101b761074d565b6101b76102733660046121b9565b610761565b6101b7610823565b60c9546001600160a01b0316610245565b6101b761029f366004611da7565b610833565b6101b76102b23660046121f2565b6109f4565b6101b76102c5366004612230565b610a03565b6102dd6102d8366004611da7565b610ad2565b60405161015894939291906122b8565b6101b76102fb3660046122ef565b610ba3565b61017461030e366004612324565b6001600160a01b03918216600090815260666020908152604080832093909416825291909152205460ff1690565b6101b761034a366004612150565b610e95565b6101b761035d366004612352565b610eda565b60006001600160a01b0383166103d25760405162461bcd60e51b815260206004820152602a60248201527f455243313135353a2061646472657373207a65726f206973206e6f742061207660448201526930b634b21037bbb732b960b11b60648201526084015b60405180910390fd5b5060009081526065602090815260408083206001600160a01b03949094168352929052205490565b60006001600160e01b03198216636cdb3d1360e11b148061042b57506001600160e01b031982166303a24d0760e21b145b8061044657506301ffc9a760e01b6001600160e01b03198316145b92915050565b600081815261012f602052604081206003018054606092919061046e9061236f565b80601f016020809104026020016040519081016040528092919081815260200182805461049a9061236f565b80156104e75780601f106104bc576101008083540402835291602001916104e7565b820191906000526020600020905b8154815290600101906020018083116104ca57829003601f168201915b50505050509050600061050560408051602081019091526000815290565b90508051600003610517575092915050565b8151156105495780826040516020016105319291906123a9565b60405160208183030381529060405292505050919050565b6000815111610567576040518060200160405280600081525061057a565b80846040516020016105319291906123d8565b949350505050565b6001600160a01b03851633148061059e575061059e853361030e565b6105ba5760405162461bcd60e51b81526004016103c9906123fa565b6105c78585858585610f53565b5050505050565b606081518351146106335760405162461bcd60e51b815260206004820152602960248201527f455243313135353a206163636f756e747320616e6420696473206c656e677468604482015268040dad2e6dac2e8c6d60bb1b60648201526084016103c9565b6000835167ffffffffffffffff81111561064f5761064f611e2b565b604051908082528060200260200182016040528015610678578160200160208202803683370190505b50905060005b84518110156106f0576106c385828151811061069c5761069c612449565b60200260200101518583815181106106b6576106b6612449565b6020026020010151610362565b8282815181106106d5576106d5612449565b60209081029190910101526106e981612475565b905061067e565b509392505050565b60975460ff161561071b5760405162461bcd60e51b81526004016103c99061248e565b60006107278685610362565b905060006107358686610362565b90506107448787878787610e95565b50505050505050565b610755611133565b61075f600061118d565b565b610769611133565b60975460ff161561078c5760405162461bcd60e51b81526004016103c99061248e565b60006107988285610362565b905082811015610812576040805162461bcd60e51b81526020600482015260248101919091527f7472616e7366657265722068617320746f206f776e20657175616c206f72206d60448201527f6f726520736861726573207468616e2074686520676976656e20616d6f756e7460648201526084016103c9565b61081d8285856111df565b50505050565b61082b611133565b61075f61135e565b60975460ff16156108565760405162461bcd60e51b81526004016103c99061248e565b600081815261012f6020526040812060020154906108743384610362565b90508082146108d95760405162461bcd60e51b815260206004820152602b60248201527f6d6573736167652073656e6465722068617320746f206f776e20616c6c206f6660448201526a207468652073686172657360a81b60648201526084016103c9565b600083815261012f602052604090819020805460019091015491516323b872dd60e01b8152306004820152336024820152604481018390526001600160a01b039091169190829081906323b872dd90606401600060405180830381600087803b15801561094557600080fd5b505af1158015610959573d6000803e3d6000fd5b505050506109683387876111df565b600086815261012f6020526040812080546001600160a01b03191681556001810182905560028101829055906109a16003830182611c59565b5050604080518781526001600160a01b03851660208201529081018390527f93099f51c64ef1232856a1b30fa669561cf1d6a628ef780bb9ed4f6872c36fff9060600160405180910390a1505050505050565b6109ff3383836113b8565b5050565b600054610100900460ff1615808015610a235750600054600160ff909116105b80610a3d5750303b158015610a3d575060005460ff166001145b610a595760405162461bcd60e51b81526004016103c9906124c5565b6000805460ff191660011790558015610a7c576000805461ff0019166101001790555b610a87848484611498565b801561081d576000805461ff0019169055604051600181527f7f26b83ff96e1f2b6a682f133852f6798a09c465da95921460cefb38474024989060200160405180910390a150505050565b600081815261012f6020526040812080546001820154600283015460039093018054859485946060946001600160a01b039091169390928190610b149061236f565b80601f0160208091040260200160405190810160405280929190818152602001828054610b409061236f565b8015610b8d5780601f10610b6257610100808354040283529160200191610b8d565b820191906000526020600020905b815481529060010190602001808311610b7057829003601f168201915b5050505050905093509350935093509193509193565b60975460ff1615610bc65760405162461bcd60e51b81526004016103c99061248e565b6040516331a9108f60e11b815260048101839052839033906001600160a01b03831690636352211e90602401602060405180830381865afa158015610c0f573d6000803e3d6000fd5b505050506040513d601f19601f82011682018060405250810190610c339190612513565b6001600160a01b031614610c9c5760405162461bcd60e51b815260206004820152602a60248201527f6d73672073656e6465722068617320746f206f776e2074686520746f6b656e206044820152691d1bc819195c1bdcda5d60b21b60648201526084016103c9565b6040516323b872dd60e01b8152336004820152306024820152604481018490526001600160a01b038216906323b872dd90606401600060405180830381600087803b158015610cea57600080fd5b505af1158015610cfe573d6000803e3d6000fd5b50505050610d1161013080546001019055565b6000610d1d6101305490565b60405163c87b56dd60e01b8152600481018690529091506060906001600160a01b0384169063c87b56dd90602401600060405180830381865afa158015610d68573d6000803e3d6000fd5b505050506040513d6000823e601f3d908101601f19168201604052610d909190810190612530565b9050610d9e3383868461154c565b610dd2604051806080016040528060006001600160a01b031681526020016000815260200160008152602001606081525090565b6001600160a01b0387811682526020808301888152604080850189815260608601878152600089815261012f865292909220865181546001600160a01b03191696169590951785559151600185015590516002840155518051849392610e3f926003850192910190611c93565b50905050610e4d8383611659565b7fc418f7a91f366be09b65548b396e0f63940f86274faace87fe5e604acd5f43c98388888886604051610e849594939291906125a8565b60405180910390a150505050505050565b6001600160a01b038516331480610eb15750610eb1853361030e565b610ecd5760405162461bcd60e51b81526004016103c9906123fa565b6105c78585858585611684565b610ee2611133565b6001600160a01b038116610f475760405162461bcd60e51b815260206004820152602660248201527f4f776e61626c653a206e6577206f776e657220697320746865207a65726f206160448201526564647265737360d01b60648201526084016103c9565b610f508161118d565b50565b8151835114610fb55760405162461bcd60e51b815260206004820152602860248201527f455243313135353a2069647320616e6420616d6f756e7473206c656e677468206044820152670dad2e6dac2e8c6d60c31b60648201526084016103c9565b6001600160a01b038416610fdb5760405162461bcd60e51b81526004016103c9906125e6565b3360005b84518110156110c5576000858281518110610ffc57610ffc612449565b60200260200101519050600085838151811061101a5761101a612449565b60209081029190910181015160008481526065835260408082206001600160a01b038e16835290935291909120549091508181101561106b5760405162461bcd60e51b81526004016103c99061262b565b60008381526065602090815260408083206001600160a01b038e8116855292528083208585039055908b168252812080548492906110aa908490612675565b92505081905550505050806110be90612475565b9050610fdf565b50846001600160a01b0316866001600160a01b0316826001600160a01b03167f4a39dc06d4c0dbc64b70af90fd698a233a518aa5d07e595d983b8c0526c8f7fb878760405161111592919061268d565b60405180910390a461112b8187878787876117b2565b505050505050565b60c9546001600160a01b0316331461075f5760405162461bcd60e51b815260206004820181905260248201527f4f776e61626c653a2063616c6c6572206973206e6f7420746865206f776e657260448201526064016103c9565b60c980546001600160a01b038381166001600160a01b0319831681179093556040519116919082907f8be0079c531659141344cd1fd0a4f28419497f9722a3daafe3b4186f6b6457e090600090a35050565b6001600160a01b0383166112415760405162461bcd60e51b815260206004820152602360248201527f455243313135353a206275726e2066726f6d20746865207a65726f206164647260448201526265737360e81b60648201526084016103c9565b33600061124d8461190d565b9050600061125a8461190d565b6040805160208082018352600091829052888252606581528282206001600160a01b038b16835290522054909150848110156112e45760405162461bcd60e51b8152602060048201526024808201527f455243313135353a206275726e20616d6f756e7420657863656564732062616c604482015263616e636560e01b60648201526084016103c9565b60008681526065602090815260408083206001600160a01b038b81168086529184528285208a8703905582518b81529384018a90529092908816917fc3d58168c5ae7397731d063d5bbf3d657854427343f4c083240f7aacaa2d0f62910160405180910390a4604080516020810190915260009052610744565b611366611958565b6097805460ff191660011790557f62e78cea01bee320cd4e420270b5ea74000d11b0c9f74754ebdbfc544b05a25861139b3390565b6040516001600160a01b03909116815260200160405180910390a1565b816001600160a01b0316836001600160a01b03160361142b5760405162461bcd60e51b815260206004820152602960248201527f455243313135353a2073657474696e6720617070726f76616c20737461747573604482015268103337b91039b2b63360b91b60648201526084016103c9565b6001600160a01b03838116600081815260666020908152604080832094871680845294825291829020805460ff191686151590811790915591519182527f17307eab39ab6107e8899845ad3d59bd9653f200f220920489ca2b5937696c31910160405180910390a3505050565b600054610100900460ff16158080156114b85750600054600160ff909116105b806114d25750303b1580156114d2575060005460ff166001145b6114ee5760405162461bcd60e51b81526004016103c9906124c5565b6000805460ff191660011790558015611511576000805461ff0019166101001790555b61151961199e565b61152161199e565b6115296119c5565b6115338484611a86565b61153b611ab7565b611543611aea565b610a8782611b1a565b6001600160a01b0384166115ac5760405162461bcd60e51b815260206004820152602160248201527f455243313135353a206d696e7420746f20746865207a65726f206164647265736044820152607360f81b60648201526084016103c9565b3360006115b88561190d565b905060006115c58561190d565b905060008681526065602090815260408083206001600160a01b038b168452909152812080548792906115f9908490612675565b909155505060408051878152602081018790526001600160a01b03808a1692600092918716917fc3d58168c5ae7397731d063d5bbf3d657854427343f4c083240f7aacaa2d0f62910160405180910390a461074483600089898989611b4a565b600082815261012f60209081526040909120825161167f92600390920191840190611c93565b505050565b6001600160a01b0384166116aa5760405162461bcd60e51b81526004016103c9906125e6565b3360006116b68561190d565b905060006116c38561190d565b905060008681526065602090815260408083206001600160a01b038c168452909152902054858110156117085760405162461bcd60e51b81526004016103c99061262b565b60008781526065602090815260408083206001600160a01b038d8116855292528083208985039055908a16825281208054889290611747908490612675565b909155505060408051888152602081018890526001600160a01b03808b16928c821692918816917fc3d58168c5ae7397731d063d5bbf3d657854427343f4c083240f7aacaa2d0f62910160405180910390a46117a7848a8a8a8a8a611b4a565b505050505050505050565b6001600160a01b0384163b1561112b5760405163bc197c8160e01b81526001600160a01b0385169063bc197c81906117f690899089908890889088906004016126bb565b6020604051808303816000875af1925050508015611831575060408051601f3d908101601f1916820190925261182e91810190612719565b60015b6118dd5761183d612736565b806308c379a0036118765750611851612752565b8061185c5750611878565b8060405162461bcd60e51b81526004016103c99190611e18565b505b60405162461bcd60e51b815260206004820152603460248201527f455243313135353a207472616e7366657220746f206e6f6e20455243313135356044820152732932b1b2b4bb32b91034b6b83632b6b2b73a32b960611b60648201526084016103c9565b6001600160e01b0319811663bc197c8160e01b146107445760405162461bcd60e51b81526004016103c9906127dc565b6040805160018082528183019092526060916000919060208083019080368337019050509050828160008151811061194757611947612449565b602090810291909101015292915050565b60975460ff161561075f5760405162461bcd60e51b815260206004820152601060248201526f14185d5cd8589b194e881c185d5cd95960821b60448201526064016103c9565b600054610100900460ff1661075f5760405162461bcd60e51b81526004016103c990612824565b600054610100900460ff16158080156119e55750600054600160ff909116105b806119ff5750303b1580156119ff575060005460ff166001145b611a1b5760405162461bcd60e51b81526004016103c9906124c5565b6000805460ff191660011790558015611a3e576000805461ff0019166101001790555b8015610f50576000805461ff0019169055604051600181527f7f26b83ff96e1f2b6a682f133852f6798a09c465da95921460cefb38474024989060200160405180910390a150565b600054610100900460ff16611aad5760405162461bcd60e51b81526004016103c990612824565b6109ff8282611c05565b600054610100900460ff16611ade5760405162461bcd60e51b81526004016103c990612824565b6097805460ff19169055565b600054610100900460ff16611b115760405162461bcd60e51b81526004016103c990612824565b61075f3361118d565b600054610100900460ff16611b415760405162461bcd60e51b81526004016103c990612824565b610f5081611c46565b6001600160a01b0384163b1561112b5760405163f23a6e6160e01b81526001600160a01b0385169063f23a6e6190611b8e908990899088908890889060040161286f565b6020604051808303816000875af1925050508015611bc9575060408051601f3d908101601f19168201909252611bc691810190612719565b60015b611bd55761183d612736565b6001600160e01b0319811663f23a6e6160e01b146107445760405162461bcd60e51b81526004016103c9906127dc565b600054610100900460ff16611c2c5760405162461bcd60e51b81526004016103c990612824565b81516020928301208151919092012060fb9190915560fc55565b80516109ff906067906020840190611c93565b508054611c659061236f565b6000825580601f10611c75575050565b601f016020900490600052602060002090810190610f509190611d17565b828054611c9f9061236f565b90600052602060002090601f016020900481019282611cc15760008555611d07565b82601f10611cda57805160ff1916838001178555611d07565b82800160010185558215611d07579182015b82811115611d07578251825591602001919060010190611cec565b50611d13929150611d17565b5090565b5b80821115611d135760008155600101611d18565b6001600160a01b0381168114610f5057600080fd5b60008060408385031215611d5457600080fd5b8235611d5f81611d2c565b946020939093013593505050565b6001600160e01b031981168114610f5057600080fd5b600060208284031215611d9557600080fd5b8135611da081611d6d565b9392505050565b600060208284031215611db957600080fd5b5035919050565b60005b83811015611ddb578181015183820152602001611dc3565b8381111561081d5750506000910152565b60008151808452611e04816020860160208601611dc0565b601f01601f19169290920160200192915050565b602081526000611da06020830184611dec565b634e487b7160e01b600052604160045260246000fd5b601f8201601f1916810167ffffffffffffffff81118282101715611e6757611e67611e2b565b6040525050565b600067ffffffffffffffff821115611e8857611e88611e2b565b5060051b60200190565b600082601f830112611ea357600080fd5b81356020611eb082611e6e565b604051611ebd8282611e41565b83815260059390931b8501820192828101915086841115611edd57600080fd5b8286015b84811015611ef85780358352918301918301611ee1565b509695505050505050565b600067ffffffffffffffff821115611f1d57611f1d611e2b565b50601f01601f191660200190565b600082601f830112611f3c57600080fd5b8135611f4781611f03565b604051611f548282611e41565b828152856020848701011115611f6957600080fd5b82602086016020830137600092810160200192909252509392505050565b600080600080600060a08688031215611f9f57600080fd5b8535611faa81611d2c565b94506020860135611fba81611d2c565b9350604086013567ffffffffffffffff80821115611fd757600080fd5b611fe389838a01611e92565b94506060880135915080821115611ff957600080fd5b61200589838a01611e92565b9350608088013591508082111561201b57600080fd5b5061202888828901611f2b565b9150509295509295909350565b6000806040838503121561204857600080fd5b823567ffffffffffffffff8082111561206057600080fd5b818501915085601f83011261207457600080fd5b8135602061208182611e6e565b60405161208e8282611e41565b83815260059390931b85018201928281019150898411156120ae57600080fd5b948201945b838610156120d55785356120c681611d2c565b825294820194908201906120b3565b965050860135925050808211156120eb57600080fd5b506120f885828601611e92565b9150509250929050565b600081518084526020808501945080840160005b8381101561213257815187529582019590820190600101612116565b509495945050505050565b602081526000611da06020830184612102565b600080600080600060a0868803121561216857600080fd5b853561217381611d2c565b9450602086013561218381611d2c565b93506040860135925060608601359150608086013567ffffffffffffffff8111156121ad57600080fd5b61202888828901611f2b565b6000806000606084860312156121ce57600080fd5b833592506020840135915060408401356121e781611d2c565b809150509250925092565b6000806040838503121561220557600080fd5b823561221081611d2c565b91506020830135801515811461222557600080fd5b809150509250929050565b60008060006060848603121561224557600080fd5b833567ffffffffffffffff8082111561225d57600080fd5b61226987838801611f2b565b9450602086013591508082111561227f57600080fd5b61228b87838801611f2b565b935060408601359150808211156122a157600080fd5b506122ae86828701611f2b565b9150509250925092565b60018060a01b03851681528360208201528260408201526080606082015260006122e56080830184611dec565b9695505050505050565b60008060006060848603121561230457600080fd5b833561230f81611d2c565b95602085013595506040909401359392505050565b6000806040838503121561233757600080fd5b823561234281611d2c565b9150602083013561222581611d2c565b60006020828403121561236457600080fd5b8135611da081611d2c565b600181811c9082168061238357607f821691505b6020821081036123a357634e487b7160e01b600052602260045260246000fd5b50919050565b600083516123bb818460208801611dc0565b8351908301906123cf818360208801611dc0565b01949350505050565b600083516123ea818460208801611dc0565b9190910191825250602001919050565b6020808252602f908201527f455243313135353a2063616c6c6572206973206e6f7420746f6b656e206f776e60408201526e195c881b9bdc88185c1c1c9bdd9959608a1b606082015260800190565b634e487b7160e01b600052603260045260246000fd5b634e487b7160e01b600052601160045260246000fd5b6000600182016124875761248761245f565b5060010190565b60208082526018908201527f4e6f7420616c6c6f776564207768696c65207061757365640000000000000000604082015260600190565b6020808252602e908201527f496e697469616c697a61626c653a20636f6e747261637420697320616c72656160408201526d191e481a5b9a5d1a585b1a5e995960921b606082015260800190565b60006020828403121561252557600080fd5b8151611da081611d2c565b60006020828403121561254257600080fd5b815167ffffffffffffffff81111561255957600080fd5b8201601f8101841361256a57600080fd5b805161257581611f03565b6040516125828282611e41565b82815286602084860101111561259757600080fd5b6122e5836020830160208701611dc0565b85815260018060a01b038516602082015283604082015282606082015260a0608082015260006125db60a0830184611dec565b979650505050505050565b60208082526025908201527f455243313135353a207472616e7366657220746f20746865207a65726f206164604082015264647265737360d81b606082015260800190565b6020808252602a908201527f455243313135353a20696e73756666696369656e742062616c616e636520666f60408201526939103a3930b739b332b960b11b606082015260800190565b600082198211156126885761268861245f565b500190565b6040815260006126a06040830185612102565b82810360208401526126b28185612102565b95945050505050565b6001600160a01b0386811682528516602082015260a0604082018190526000906126e790830186612102565b82810360608401526126f98186612102565b9050828103608084015261270d8185611dec565b98975050505050505050565b60006020828403121561272b57600080fd5b8151611da081611d6d565b600060033d111561274f5760046000803e5060005160e01c5b90565b600060443d10156127605790565b6040516003193d81016004833e81513d67ffffffffffffffff816024840111818411171561279057505050505090565b82850191508151818111156127a85750505050505090565b843d87010160208285010111156127c25750505050505090565b6127d160208286010187611e41565b509095945050505050565b60208082526028908201527f455243313135353a204552433131353552656365697665722072656a656374656040820152676420746f6b656e7360c01b606082015260800190565b6020808252602b908201527f496e697469616c697a61626c653a20636f6e7472616374206973206e6f74206960408201526a6e697469616c697a696e6760a81b606082015260800190565b6001600160a01b03868116825285166020820152604081018490526060810183905260a0608082018190526000906125db90830184611dec56fea26469706673582212200e48407de1b2f72c45d6562dab602b84b57a44e3d7ce19b4f4d30b1a73fb10c164736f6c634300080e0033",
    "linkReferences": {},
    "deployedLinkReferences": {}
}