{
    "_format": "hh-sol-artifact-1",
    "contractName": "MarketPlace",
    "sourceName": "contracts/Marketplace.sol",
    "abi": [
        {
            "anonymous": false,
            "inputs": [
                {
                    "indexed": false,
                    "internalType": "address",
                    "name": "newWhitelistAddress",
                    "type": "address"
                }
            ],
            "name": "AddressAddedToWhitelist",
            "type": "event"
        },
        {
            "anonymous": false,
            "inputs": [
                {
                    "indexed": false,
                    "internalType": "address",
                    "name": "removedWhitelistAddress",
                    "type": "address"
                }
            ],
            "name": "AddressRemovedFromWhitelist",
            "type": "event"
        },
        {
            "anonymous": false,
            "inputs": [
                {
                    "indexed": false,
                    "internalType": "uint8",
                    "name": "version",
                    "type": "uint8"
                }
            ],
            "name": "Initialized",
            "type": "event"
        },
        {
            "anonymous": false,
            "inputs": [
                {
                    "indexed": false,
                    "internalType": "uint256",
                    "name": "tax",
                    "type": "uint256"
                },
                {
                    "indexed": false,
                    "internalType": "string",
                    "name": "name",
                    "type": "string"
                }
            ],
            "name": "LogDiscount",
            "type": "event"
        },
        {
            "anonymous": false,
            "inputs": [
                {
                    "indexed": false,
                    "internalType": "address",
                    "name": "newAddress",
                    "type": "address"
                },
                {
                    "indexed": false,
                    "internalType": "address",
                    "name": "senderAddress",
                    "type": "address"
                }
            ],
            "name": "LogFeeAddressUpdated",
            "type": "event"
        },
        {
            "anonymous": false,
            "inputs": [
                {
                    "indexed": false,
                    "internalType": "uint256",
                    "name": "balance",
                    "type": "uint256"
                },
                {
                    "indexed": false,
                    "internalType": "string",
                    "name": "name",
                    "type": "string"
                }
            ],
            "name": "LogFeePercent",
            "type": "event"
        },
        {
            "anonymous": false,
            "inputs": [
                {
                    "indexed": false,
                    "internalType": "address",
                    "name": "feeAddress",
                    "type": "address"
                },
                {
                    "indexed": false,
                    "internalType": "uint256",
                    "name": "feePercent",
                    "type": "uint256"
                },
                {
                    "indexed": false,
                    "internalType": "address",
                    "name": "senderAddress",
                    "type": "address"
                }
            ],
            "name": "LogFeeUpdated",
            "type": "event"
        },
        {
            "anonymous": false,
            "inputs": [
                {
                    "indexed": false,
                    "internalType": "uint256",
                    "name": "auctionType",
                    "type": "uint256"
                },
                {
                    "indexed": false,
                    "internalType": "uint256",
                    "name": "tokenId",
                    "type": "uint256"
                },
                {
                    "indexed": false,
                    "internalType": "address",
                    "name": "buyer",
                    "type": "address"
                },
                {
                    "indexed": false,
                    "internalType": "address",
                    "name": "seller",
                    "type": "address"
                },
                {
                    "indexed": false,
                    "internalType": "uint256",
                    "name": "quantity",
                    "type": "uint256"
                }
            ],
            "name": "LogOrderFinalised1155",
            "type": "event"
        },
        {
            "anonymous": false,
            "inputs": [
                {
                    "indexed": false,
                    "internalType": "uint256",
                    "name": "auctionType",
                    "type": "uint256"
                },
                {
                    "indexed": false,
                    "internalType": "uint256",
                    "name": "tokenId",
                    "type": "uint256"
                },
                {
                    "indexed": false,
                    "internalType": "address",
                    "name": "buyer",
                    "type": "address"
                },
                {
                    "indexed": false,
                    "internalType": "address",
                    "name": "seller",
                    "type": "address"
                }
            ],
            "name": "LogOrderFinalised721",
            "type": "event"
        },
        {
            "anonymous": false,
            "inputs": [
                {
                    "indexed": false,
                    "internalType": "string",
                    "name": "name",
                    "type": "string"
                }
            ],
            "name": "LogToast",
            "type": "event"
        },
        {
            "anonymous": false,
            "inputs": [
                {
                    "indexed": false,
                    "internalType": "address",
                    "name": "account",
                    "type": "address"
                }
            ],
            "name": "Paused",
            "type": "event"
        },
        {
            "anonymous": false,
            "inputs": [
                {
                    "indexed": true,
                    "internalType": "bytes32",
                    "name": "role",
                    "type": "bytes32"
                },
                {
                    "indexed": true,
                    "internalType": "bytes32",
                    "name": "previousAdminRole",
                    "type": "bytes32"
                },
                {
                    "indexed": true,
                    "internalType": "bytes32",
                    "name": "newAdminRole",
                    "type": "bytes32"
                }
            ],
            "name": "RoleAdminChanged",
            "type": "event"
        },
        {
            "anonymous": false,
            "inputs": [
                {
                    "indexed": true,
                    "internalType": "bytes32",
                    "name": "role",
                    "type": "bytes32"
                },
                {
                    "indexed": true,
                    "internalType": "address",
                    "name": "account",
                    "type": "address"
                },
                {
                    "indexed": true,
                    "internalType": "address",
                    "name": "sender",
                    "type": "address"
                }
            ],
            "name": "RoleGranted",
            "type": "event"
        },
        {
            "anonymous": false,
            "inputs": [
                {
                    "indexed": true,
                    "internalType": "bytes32",
                    "name": "role",
                    "type": "bytes32"
                },
                {
                    "indexed": true,
                    "internalType": "address",
                    "name": "account",
                    "type": "address"
                },
                {
                    "indexed": true,
                    "internalType": "address",
                    "name": "sender",
                    "type": "address"
                }
            ],
            "name": "RoleRevoked",
            "type": "event"
        },
        {
            "anonymous": false,
            "inputs": [
                {
                    "indexed": false,
                    "internalType": "uint256",
                    "name": "tokenId",
                    "type": "uint256"
                },
                {
                    "indexed": false,
                    "internalType": "uint256",
                    "name": "value",
                    "type": "uint256"
                }
            ],
            "name": "RoyaltiesPaid",
            "type": "event"
        },
        {
            "anonymous": false,
            "inputs": [
                {
                    "indexed": false,
                    "internalType": "address",
                    "name": "account",
                    "type": "address"
                }
            ],
            "name": "Unpaused",
            "type": "event"
        },
        {
            "inputs": [],
            "name": "DEFAULT_ADMIN_ROLE",
            "outputs": [
                {
                    "internalType": "bytes32",
                    "name": "",
                    "type": "bytes32"
                }
            ],
            "stateMutability": "view",
            "type": "function"
        },
        {
            "inputs": [
                {
                    "internalType": "address",
                    "name": "addr",
                    "type": "address"
                }
            ],
            "name": "addAddressToWhitelist",
            "outputs": [],
            "stateMutability": "nonpayable",
            "type": "function"
        },
        {
            "inputs": [
                {
                    "internalType": "uint256",
                    "name": "",
                    "type": "uint256"
                }
            ],
            "name": "auctionDetails",
            "outputs": [
                {
                    "internalType": "uint256",
                    "name": "totalListedQuantity",
                    "type": "uint256"
                },
                {
                    "internalType": "uint256",
                    "name": "quantityLeft",
                    "type": "uint256"
                }
            ],
            "stateMutability": "view",
            "type": "function"
        },
        {
            "inputs": [
                {
                    "internalType": "address",
                    "name": "_owner",
                    "type": "address"
                },
                {
                    "internalType": "uint256[]",
                    "name": "otherParams",
                    "type": "uint256[]"
                },
                {
                    "internalType": "address",
                    "name": "_buyer",
                    "type": "address"
                },
                {
                    "internalType": "bytes",
                    "name": "signature",
                    "type": "bytes"
                },
                {
                    "internalType": "uint256",
                    "name": "bidAmount",
                    "type": "uint256"
                },
                {
                    "internalType": "uint256",
                    "name": "_quantity",
                    "type": "uint256"
                },
                {
                    "internalType": "address",
                    "name": "tokenContract",
                    "type": "address"
                }
            ],
            "name": "bid1155",
            "outputs": [],
            "stateMutability": "nonpayable",
            "type": "function"
        },
        {
            "inputs": [
                {
                    "internalType": "address",
                    "name": "buyer",
                    "type": "address"
                },
                {
                    "internalType": "address",
                    "name": "owner",
                    "type": "address"
                },
                {
                    "internalType": "uint256[]",
                    "name": "otherParams",
                    "type": "uint256[]"
                },
                {
                    "internalType": "bytes",
                    "name": "signature",
                    "type": "bytes"
                },
                {
                    "internalType": "uint256",
                    "name": "bidAmount",
                    "type": "uint256"
                },
                {
                    "internalType": "address",
                    "name": "tokenContract",
                    "type": "address"
                }
            ],
            "name": "bid721",
            "outputs": [
                {
                    "internalType": "bool",
                    "name": "",
                    "type": "bool"
                }
            ],
            "stateMutability": "nonpayable",
            "type": "function"
        },
        {
            "inputs": [
                {
                    "internalType": "address",
                    "name": "_owner",
                    "type": "address"
                },
                {
                    "internalType": "uint256[]",
                    "name": "otherParams",
                    "type": "uint256[]"
                },
                {
                    "internalType": "bytes",
                    "name": "signature",
                    "type": "bytes"
                },
                {
                    "internalType": "uint256",
                    "name": "quantity",
                    "type": "uint256"
                },
                {
                    "internalType": "address",
                    "name": "tokenContract",
                    "type": "address"
                }
            ],
            "name": "buy1155",
            "outputs": [],
            "stateMutability": "nonpayable",
            "type": "function"
        },
        {
            "inputs": [
                {
                    "internalType": "address",
                    "name": "_owner",
                    "type": "address"
                },
                {
                    "internalType": "uint256[]",
                    "name": "otherParams",
                    "type": "uint256[]"
                },
                {
                    "internalType": "bytes",
                    "name": "signature",
                    "type": "bytes"
                },
                {
                    "internalType": "address",
                    "name": "tokenContract",
                    "type": "address"
                }
            ],
            "name": "buy721",
            "outputs": [],
            "stateMutability": "nonpayable",
            "type": "function"
        },
        {
            "inputs": [],
            "name": "feeAddress",
            "outputs": [
                {
                    "internalType": "address",
                    "name": "",
                    "type": "address"
                }
            ],
            "stateMutability": "view",
            "type": "function"
        },
        {
            "inputs": [],
            "name": "feePercent",
            "outputs": [
                {
                    "internalType": "uint256",
                    "name": "",
                    "type": "uint256"
                }
            ],
            "stateMutability": "view",
            "type": "function"
        },
        {
            "inputs": [
                {
                    "internalType": "address",
                    "name": "_owner",
                    "type": "address"
                },
                {
                    "internalType": "uint256[]",
                    "name": "otherParams",
                    "type": "uint256[]"
                },
                {
                    "internalType": "address",
                    "name": "_buyer",
                    "type": "address"
                },
                {
                    "internalType": "bytes",
                    "name": "signature",
                    "type": "bytes"
                },
                {
                    "internalType": "uint256",
                    "name": "bidAmount",
                    "type": "uint256"
                },
                {
                    "internalType": "uint256",
                    "name": "_quantity",
                    "type": "uint256"
                },
                {
                    "internalType": "address",
                    "name": "tokenContract",
                    "type": "address"
                }
            ],
            "name": "finaliseERC1155Auction",
            "outputs": [],
            "stateMutability": "nonpayable",
            "type": "function"
        },
        {
            "inputs": [
                {
                    "internalType": "address",
                    "name": "buyer",
                    "type": "address"
                },
                {
                    "internalType": "address",
                    "name": "owner",
                    "type": "address"
                },
                {
                    "internalType": "uint256[]",
                    "name": "otherParams",
                    "type": "uint256[]"
                },
                {
                    "internalType": "bytes",
                    "name": "signature",
                    "type": "bytes"
                },
                {
                    "internalType": "uint256",
                    "name": "bidAmount",
                    "type": "uint256"
                },
                {
                    "internalType": "address",
                    "name": "tokenContract",
                    "type": "address"
                }
            ],
            "name": "finaliseERC721Auction",
            "outputs": [
                {
                    "internalType": "bool",
                    "name": "",
                    "type": "bool"
                }
            ],
            "stateMutability": "nonpayable",
            "type": "function"
        },
        {
            "inputs": [
                {
                    "internalType": "address",
                    "name": "_owner",
                    "type": "address"
                },
                {
                    "internalType": "uint256[]",
                    "name": "otherParams",
                    "type": "uint256[]"
                },
                {
                    "internalType": "bytes",
                    "name": "signature",
                    "type": "bytes"
                },
                {
                    "internalType": "uint256",
                    "name": "quantity",
                    "type": "uint256"
                },
                {
                    "internalType": "address",
                    "name": "tokenContract",
                    "type": "address"
                }
            ],
            "name": "finaliseFixedPriceAuction1155",
            "outputs": [],
            "stateMutability": "nonpayable",
            "type": "function"
        },
        {
            "inputs": [
                {
                    "internalType": "address",
                    "name": "_owner",
                    "type": "address"
                },
                {
                    "internalType": "uint256[]",
                    "name": "otherParams",
                    "type": "uint256[]"
                },
                {
                    "internalType": "bytes",
                    "name": "signature",
                    "type": "bytes"
                },
                {
                    "internalType": "address",
                    "name": "tokenContract",
                    "type": "address"
                }
            ],
            "name": "finaliseFixedPriceAuction721",
            "outputs": [],
            "stateMutability": "nonpayable",
            "type": "function"
        },
        {
            "inputs": [
                {
                    "internalType": "address",
                    "name": "user",
                    "type": "address"
                }
            ],
            "name": "findFeePercent",
            "outputs": [
                {
                    "internalType": "uint256",
                    "name": "",
                    "type": "uint256"
                }
            ],
            "stateMutability": "nonpayable",
            "type": "function"
        },
        {
            "inputs": [],
            "name": "getChainID",
            "outputs": [
                {
                    "internalType": "uint256",
                    "name": "",
                    "type": "uint256"
                }
            ],
            "stateMutability": "view",
            "type": "function"
        },
        {
            "inputs": [
                {
                    "internalType": "bytes32",
                    "name": "role",
                    "type": "bytes32"
                }
            ],
            "name": "getRoleAdmin",
            "outputs": [
                {
                    "internalType": "bytes32",
                    "name": "",
                    "type": "bytes32"
                }
            ],
            "stateMutability": "view",
            "type": "function"
        },
        {
            "inputs": [
                {
                    "internalType": "bytes32",
                    "name": "role",
                    "type": "bytes32"
                },
                {
                    "internalType": "address",
                    "name": "account",
                    "type": "address"
                }
            ],
            "name": "grantRole",
            "outputs": [],
            "stateMutability": "nonpayable",
            "type": "function"
        },
        {
            "inputs": [
                {
                    "internalType": "bytes32",
                    "name": "role",
                    "type": "bytes32"
                },
                {
                    "internalType": "address",
                    "name": "account",
                    "type": "address"
                }
            ],
            "name": "hasRole",
            "outputs": [
                {
                    "internalType": "bool",
                    "name": "",
                    "type": "bool"
                }
            ],
            "stateMutability": "view",
            "type": "function"
        },
        {
            "inputs": [
                {
                    "internalType": "string",
                    "name": "_name",
                    "type": "string"
                },
                {
                    "internalType": "string",
                    "name": "_symbol",
                    "type": "string"
                },
                {
                    "internalType": "string",
                    "name": "signDomain",
                    "type": "string"
                },
                {
                    "internalType": "string",
                    "name": "signVersion",
                    "type": "string"
                },
                {
                    "internalType": "address",
                    "name": "_feeAddress",
                    "type": "address"
                },
                {
                    "internalType": "address[]",
                    "name": "_whitelistAddresses",
                    "type": "address[]"
                },
                {
                    "internalType": "uint256",
                    "name": "_feePercent",
                    "type": "uint256"
                },
                {
                    "internalType": "address",
                    "name": "_wethAddr",
                    "type": "address"
                }
            ],
            "name": "initialize",
            "outputs": [],
            "stateMutability": "nonpayable",
            "type": "function"
        },
        {
            "inputs": [],
            "name": "name",
            "outputs": [
                {
                    "internalType": "string",
                    "name": "",
                    "type": "string"
                }
            ],
            "stateMutability": "view",
            "type": "function"
        },
        {
            "inputs": [
                {
                    "internalType": "address",
                    "name": "",
                    "type": "address"
                },
                {
                    "internalType": "address",
                    "name": "",
                    "type": "address"
                },
                {
                    "internalType": "uint256[]",
                    "name": "",
                    "type": "uint256[]"
                },
                {
                    "internalType": "uint256[]",
                    "name": "",
                    "type": "uint256[]"
                },
                {
                    "internalType": "bytes",
                    "name": "",
                    "type": "bytes"
                }
            ],
            "name": "onERC1155BatchReceived",
            "outputs": [
                {
                    "internalType": "bytes4",
                    "name": "",
                    "type": "bytes4"
                }
            ],
            "stateMutability": "pure",
            "type": "function"
        },
        {
            "inputs": [
                {
                    "internalType": "address",
                    "name": "",
                    "type": "address"
                },
                {
                    "internalType": "address",
                    "name": "",
                    "type": "address"
                },
                {
                    "internalType": "uint256",
                    "name": "",
                    "type": "uint256"
                },
                {
                    "internalType": "uint256",
                    "name": "",
                    "type": "uint256"
                },
                {
                    "internalType": "bytes",
                    "name": "",
                    "type": "bytes"
                }
            ],
            "name": "onERC1155Received",
            "outputs": [
                {
                    "internalType": "bytes4",
                    "name": "",
                    "type": "bytes4"
                }
            ],
            "stateMutability": "pure",
            "type": "function"
        },
        {
            "inputs": [
                {
                    "internalType": "address",
                    "name": "",
                    "type": "address"
                },
                {
                    "internalType": "address",
                    "name": "",
                    "type": "address"
                },
                {
                    "internalType": "uint256",
                    "name": "",
                    "type": "uint256"
                },
                {
                    "internalType": "bytes",
                    "name": "",
                    "type": "bytes"
                }
            ],
            "name": "onERC721Received",
            "outputs": [
                {
                    "internalType": "bytes4",
                    "name": "",
                    "type": "bytes4"
                }
            ],
            "stateMutability": "pure",
            "type": "function"
        },
        {
            "inputs": [],
            "name": "paused",
            "outputs": [
                {
                    "internalType": "bool",
                    "name": "",
                    "type": "bool"
                }
            ],
            "stateMutability": "view",
            "type": "function"
        },
        {
            "inputs": [
                {
                    "internalType": "address",
                    "name": "addr",
                    "type": "address"
                }
            ],
            "name": "removeAddressFromWhitelist",
            "outputs": [],
            "stateMutability": "nonpayable",
            "type": "function"
        },
        {
            "inputs": [
                {
                    "internalType": "bytes32",
                    "name": "role",
                    "type": "bytes32"
                },
                {
                    "internalType": "address",
                    "name": "account",
                    "type": "address"
                }
            ],
            "name": "renounceRole",
            "outputs": [],
            "stateMutability": "nonpayable",
            "type": "function"
        },
        {
            "inputs": [
                {
                    "internalType": "bytes32",
                    "name": "role",
                    "type": "bytes32"
                },
                {
                    "internalType": "address",
                    "name": "account",
                    "type": "address"
                }
            ],
            "name": "revokeRole",
            "outputs": [],
            "stateMutability": "nonpayable",
            "type": "function"
        },
        {
            "inputs": [
                {
                    "internalType": "bytes4",
                    "name": "interfaceId",
                    "type": "bytes4"
                }
            ],
            "name": "supportsInterface",
            "outputs": [
                {
                    "internalType": "bool",
                    "name": "",
                    "type": "bool"
                }
            ],
            "stateMutability": "view",
            "type": "function"
        },
        {
            "inputs": [],
            "name": "symbol",
            "outputs": [
                {
                    "internalType": "string",
                    "name": "",
                    "type": "string"
                }
            ],
            "stateMutability": "view",
            "type": "function"
        },
        {
            "inputs": [
                {
                    "internalType": "address",
                    "name": "_newFeeAddress",
                    "type": "address"
                }
            ],
            "name": "updateFeeAddress",
            "outputs": [],
            "stateMutability": "nonpayable",
            "type": "function"
        },
        {
            "inputs": [
                {
                    "internalType": "uint256",
                    "name": "_feePercent",
                    "type": "uint256"
                }
            ],
            "name": "updateFeePercent",
            "outputs": [],
            "stateMutability": "nonpayable",
            "type": "function"
        }
    ],
    "bytecode": "0x608060405234801561001057600080fd5b50613717806100206000396000f3fe608060405234801561001057600080fd5b50600436106101e55760003560e01c80637fd6f15c1161010f578063a754b062116100a2578063d34c9d5e11610071578063d34c9d5e14610359578063d547741f1461045a578063f05c5fed1461046d578063f23a6e611461048057600080fd5b8063a754b062146102f6578063bbcaac38146103fc578063bc197c811461040f578063c0120da11461044757600080fd5b806391d14854116100de57806391d14854146103d957806395d89b41146103ec578063a217fddf146103f4578063a369b7411461033557600080fd5b80637fd6f15c1461037f578063856ff2d1146102775780638603d31a1461038957806390ca96a6146103c657600080fd5b806336568abe11610187578063564b81ef11610156578063564b81ef146103485780635c975abb1461034e5780636eea5315146103595780637b9417c81461036c57600080fd5b806336568abe146102e35780633907e918146102f6578063412753581461030957806345b153411461033557600080fd5b806320bd6a21116101c357806320bd6a2114610277578063248a9ca31461028a578063286dd3f5146102bb5780632f2ff15d146102d057600080fd5b806301ffc9a7146101ea57806306fdde0314610212578063150b7a0214610227575b600080fd5b6101fd6101f8366004612a5c565b6104b8565b60405190151581526020015b60405180910390f35b61021a6104c9565b6040516102099190612ae2565b61025e610235366004612bdd565b7f150b7a023d4804d13e8c85fb27262cb750cf6ba9f9dd3bb30d90f482ceeb4b1f949350505050565b6040516001600160e01b03199091168152602001610209565b6101fd610285366004612cd1565b610558565b6102ad610298366004612d76565b60009081526097602052604090206001015490565b604051908152602001610209565b6102ce6102c9366004612d8f565b61092a565b005b6102ce6102de366004612dac565b6109b1565b6102ce6102f1366004612dac565b6109db565b6102ce610304366004612ddc565b610a59565b6101315461031d906001600160a01b031681565b6040516001600160a01b039091168152602001610209565b6102ce610343366004612e8e565b610dd6565b466102ad565b60335460ff166101fd565b6102ce610367366004612f16565b61111f565b6102ce61037a366004612d8f565b6114c6565b6102ad6101325481565b6103b1610397366004612d76565b610136602052600090815260409020805460019091015482565b60408051928352602083019190915201610209565b6102ce6103d436600461300e565b611549565b6101fd6103e7366004612dac565b611698565b61021a6116c3565b6102ad600081565b6102ce61040a366004612d8f565b6116d1565b61025e61041d36600461310a565b7fc690df554309250a278186339f107582200b4b254ae59248cb85e8eaa675b80895945050505050565b6102ad610455366004612d8f565b6117af565b6102ce610468366004612dac565b6119c1565b6102ce61047b366004612d76565b6119e6565b61025e61048e3660046131b7565b7ff23a6e612e1ff4830e658fe43f4e3cb4a5f8170bd5d9e69fb5d7a7fa9e4fdf9795945050505050565b60006104c382611ac1565b92915050565b61013380546104d79061321f565b80601f01602080910402602001604051908101604052809291908181526020018280546105039061321f565b80156105505780601f1061052557610100808354040283529160200191610550565b820191906000526020600020905b81548152906001019060200180831161053357829003601f168201915b505050505081565b6000856001600160a01b038116331461058c5760405162461bcd60e51b815260040161058390613259565b60405180910390fd5b8560048151811061059f5761059f61329b565b6020026020010151428111156105c75760405162461bcd60e51b8152600401610583906132b1565b866002815181106105da576105da61329b565b60200260200101516002148061060a5750866002815181106105fe576105fe61329b565b60200260200101516003145b6106265760405162461bcd60e51b8152600401610583906132f7565b866003815181106106395761063961329b565b60200260200101516001146106605760405162461bcd60e51b815260040161058390613349565b6000610670898989886001611af6565b905084600061067e8c6117af565b61068a906127106133a5565b6106938d6117af565b61069d908a6133bd565b6106a791906133dc565b905060006106dc8b6000815181106106c1576106c161329b565b6020026020010151838b6106d591906133fe565b8f86611de9565b905061013560009054906101000a90046001600160a01b03166001600160a01b03166323b872dd8e61013160009054906101000a90046001600160a01b0316856040518463ffffffff1660e01b815260040161073a93929190613415565b6020604051808303816000875af1158015610759573d6000803e3d6000fd5b505050506040513d601f19601f8201168201806040525081019061077d9190613439565b5061013560009054906101000a90046001600160a01b03166001600160a01b03166323b872dd8e86846040518463ffffffff1660e01b81526004016107c493929190613415565b6020604051808303816000875af11580156107e3573d6000803e3d6000fd5b505050506040513d601f19601f820116820180604052508101906108079190613439565b50826001600160a01b03166342842e0e858f8e60008151811061082c5761082c61329b565b60200260200101516040518463ffffffff1660e01b815260040161085293929190613415565b600060405180830381600087803b15801561086c57600080fd5b505af1158015610880573d6000803e3d6000fd5b505050507f2a5472f7e1edec56a788c8dc163113da7ae5a002987659a779e09b757a70acce8b6002815181106108b8576108b861329b565b60200260200101518c6000815181106108d3576108d361329b565b60200260200101518f8760405161090f949392919093845260208401929092526001600160a01b03908116604084015216606082015260800190565b60405180910390a15060019c9b505050505050505050505050565b33600090815260c9602052604090205460ff166109595760405162461bcd60e51b81526004016105839061345b565b6001600160a01b038116600081815260c96020908152604091829020805460ff1916905590519182527f535611fb62fa2a833988f283b779e417e996813e44046f521d76c17b5943b08c91015b60405180910390a150565b6000828152609760205260409020600101546109cc81611f36565b6109d68383611f43565b505050565b6001600160a01b0381163314610a4b5760405162461bcd60e51b815260206004820152602f60248201527f416363657373436f6e74726f6c3a2063616e206f6e6c792072656e6f756e636560448201526e103937b632b9903337b91039b2b63360891b6064820152608401610583565b610a558282611fc9565b5050565b866001600160a01b0381163314610a825760405162461bcd60e51b815260040161058390613259565b86600481518110610a9557610a9561329b565b602002602001015142811115610abd5760405162461bcd60e51b8152600401610583906132b1565b600088600281518110610ad257610ad261329b565b6020908102919091010151905087856002831480610af05750826003145b610b0c5760405162461bcd60e51b8152600401610583906132f7565b60008b600081518110610b2157610b2161329b565b602002602001015190506000610b3a8e8e8d8b87611af6565b9050876000610b49858d6133bd565b90506000610b56876117af565b610b62906127106133a5565b610b6b886117af565b610b7590846133bd565b610b7f91906133dc565b90506000610b9886610b9184866133fe565b8a87611de9565b61013554610131546040516323b872dd60e01b81529293506001600160a01b03918216926323b872dd92610bd5928d929116908790600401613415565b6020604051808303816000875af1158015610bf4573d6000803e3d6000fd5b505050506040513d601f19601f82011682018060405250810190610c189190613439565b50610135546040516323b872dd60e01b81526001600160a01b03909116906323b872dd90610c4e908b9089908690600401613415565b6020604051808303816000875af1158015610c6d573d6000803e3d6000fd5b505050506040513d601f19601f82011682018060405250810190610c919190613439565b50836001600160a01b031663f242432a868a898b896001600160a01b0316630e89341c8d6040518263ffffffff1660e01b8152600401610cd391815260200190565b600060405180830381865afa158015610cf0573d6000803e3d6000fd5b505050506040513d6000823e601f3d908101601f19168201604052610d18919081019061348b565b6040518663ffffffff1660e01b8152600401610d38959493929190613501565b600060405180830381600087803b158015610d5257600080fd5b505af1158015610d66573d6000803e3d6000fd5b5050604080518c8152602081018a90526001600160a01b038c81168284015289166060820152608081018b905290517f4b6b06156a684cb26d0d192431fb4cf20742e94ab9ec131e2ee06fbc84e4cdda93509081900360a0019150a1505050505050505050505050505050505050565b82600281518110610de957610de961329b565b6020026020010151600114610e405760405162461bcd60e51b815260206004820152601f60248201527f41756374696f6e206e6565647320746f206265204669786564205072696365006044820152606401610583565b82600381518110610e5357610e5361329b565b6020026020010151600114610e7a5760405162461bcd60e51b815260040161058390613349565b6000610e8a858585856001611af6565b9050816000612710610e9b336117af565b87600181518110610eae57610eae61329b565b6020026020010151610ec091906133bd565b610eca91906133dc565b90506000610f1487600081518110610ee457610ee461329b565b602002602001015188600181518110610eff57610eff61329b565b6020026020010151610f0e3390565b86611de9565b61013554610131546040516323b872dd60e01b81529293506001600160a01b03918216926323b872dd92610f519233929116908790600401613415565b6020604051808303816000875af1158015610f70573d6000803e3d6000fd5b505050506040513d601f19601f82011682018060405250810190610f949190613439565b50610135546001600160a01b03166323b872dd3386846040518463ffffffff1660e01b8152600401610fc893929190613415565b6020604051808303816000875af1158015610fe7573d6000803e3d6000fd5b505050506040513d601f19601f8201168201806040525081019061100b9190613439565b506001600160a01b0383166342842e0e85338a6000815181106110305761103061329b565b60200260200101516040518463ffffffff1660e01b815260040161105693929190613415565b600060405180830381600087803b15801561107057600080fd5b505af1158015611084573d6000803e3d6000fd5b505050507f2a5472f7e1edec56a788c8dc163113da7ae5a002987659a779e09b757a70acce876002815181106110bc576110bc61329b565b6020026020010151886000815181106110d7576110d761329b565b60200260200101516110e63390565b6040805193845260208401929092526001600160a01b039081168383015287166060830152519081900360800190a15050505050505050565b836002815181106111325761113261329b565b60200260200101516001146111895760405162461bcd60e51b815260206004820152601f60248201527f41756374696f6e206e6565647320746f206265204669786564205072696365006044820152606401610583565b60006111988686868587611af6565b90506000829050600084876001815181106111b5576111b561329b565b60200260200101516111c791906133bd565b90506000876000815181106111de576111de61329b565b6020026020010151905060006127106111f76104553390565b61120190856133bd565b61120b91906133dc565b9050600061123b8a6000815181106112255761122561329b565b6020026020010151856112353390565b88611de9565b61013554610131546040516323b872dd60e01b81529293506001600160a01b03918216926323b872dd926112789233929116908790600401613415565b6020604051808303816000875af1158015611297573d6000803e3d6000fd5b505050506040513d601f19601f820116820180604052508101906112bb9190613439565b50610135546001600160a01b03166323b872dd3388846040518463ffffffff1660e01b81526004016112ef93929190613415565b6020604051808303816000875af115801561130e573d6000803e3d6000fd5b505050506040513d601f19601f820116820180604052508101906113329190613439565b506001600160a01b03851663f242432a87338d6000815181106113575761135761329b565b60200260200101518c8a6001600160a01b0316630e89341c8a6040518263ffffffff1660e01b815260040161138e91815260200190565b600060405180830381865afa1580156113ab573d6000803e3d6000fd5b505050506040513d6000823e601f3d908101601f191682016040526113d3919081019061348b565b6040518663ffffffff1660e01b81526004016113f3959493929190613501565b600060405180830381600087803b15801561140d57600080fd5b505af1158015611421573d6000803e3d6000fd5b505050507f4b6b06156a684cb26d0d192431fb4cf20742e94ab9ec131e2ee06fbc84e4cdda8a6002815181106114595761145961329b565b60200260200101518b6000815181106114745761147461329b565b60200260200101516114833390565b6040805193845260208401929092526001600160a01b039081168383015289166060830152608082018b9052519081900360a00190a15050505050505050505050565b33600090815260c9602052604090205460ff166114f55760405162461bcd60e51b81526004016105839061345b565b6001600160a01b038116600081815260c96020908152604091829020805460ff1916600117905590519182527f534d18c8ff24ba5980906d732f3075704749427353734fbbf05d50485643b12491016109a6565b600054610100900460ff16158080156115695750600054600160ff909116105b806115835750303b158015611583575060005460ff166001145b61159f5760405162461bcd60e51b815260040161058390613546565b6000805460ff1916600117905580156115c2576000805461ff0019166101001790555b88516115d6906101339060208c01906129c3565b5087516115eb906101349060208b01906129c3565b506115f4612030565b6115fc612061565b6116068787612090565b61160f846120c1565b61013180546001600160a01b038088166001600160a01b031992831617909255610132859055610135805492851692909116919091179055801561168d576000805461ff0019169055604051600181527f7f26b83ff96e1f2b6a682f133852f6798a09c465da95921460cefb38474024989060200160405180910390a15b505050505050505050565b60009182526097602090815260408084206001600160a01b0393909316845291905290205460ff1690565b61013480546104d79061321f565b33600090815260c9602052604090205460ff166117005760405162461bcd60e51b81526004016105839061345b565b610131546001600160a01b0316331461175b5760405162461bcd60e51b815260206004820152601f60248201527f596f7520617265206e6f742061206665652061646472657373206f776e6572006044820152606401610583565b61013180546001600160a01b0319166001600160a01b038316908117909155604080519182523360208301527f63b4885fb7b7b5c7e2a26b5f8ab210a357d7f0f80f13c12ce076cc32648b221591016109a6565b610135546040516370a0823160e01b81526001600160a01b03838116600483015260009283929116906370a0823190602401602060405180830381865afa1580156117fe573d6000803e3d6000fd5b505050506040513d601f19601f820116820180604052508101906118229190613594565b90506000611838670de0b6b3a7640000836133dc565b6101325490915062030d4082106118d15760c86101325461185991906133fe565b90507f5715f40a6fd82e12e4f4b4a6c94e6af293c83f34f0d48a0ff7ef97364ba64eb7816040516118c19181526040602082018190526019908201527f487572727920796f752068617665206120646973636f756e7400000000000000606082015260800190565b60405180910390a1949350505050565b620186a082106118eb5760646101325461185991906133fe565b61c35082106119045760326101325461185991906133fe565b7f5715f40a6fd82e12e4f4b4a6c94e6af293c83f34f0d48a0ff7ef97364ba64eb7816040516119ac9181526040602082018190526053908201527f536f72727920796f7520646f6e2774206861766520646973636f756e74206f6660608201527f6665722c20706c6561736520696e63726561736520796f752077616c6c657420608082015272185b5bdd5b9d08199bdc88191a5cd8dbdd5b9d606a1b60a082015260c00190565b60405180910390a15050610132549392505050565b6000828152609760205260409020600101546119dc81611f36565b6109d68383611fc9565b33600090815260c9602052604090205460ff16611a155760405162461bcd60e51b81526004016105839061345b565b610131546001600160a01b03163314611a705760405162461bcd60e51b815260206004820152601760248201527f596f7520617265206e6f74206120666565206f776e65720000000000000000006044820152606401610583565b61013281905561013154604080516001600160a01b0390921682526020820183905233908201527f8fd0a5ee4605d0a375050a5435dd52e7c9786238b17ebb21c6c0aadc99b60d2b906060016109a6565b60006001600160e01b03198216637965db0b60e01b14806104c357506301ffc9a760e01b6001600160e01b03198316146104c3565b600080604051806101000160405280886001600160a01b0316815260200187600181518110611b2757611b2761329b565b6020026020010151815260200187600281518110611b4757611b4761329b565b6020026020010151815260200187600381518110611b6757611b6761329b565b6020026020010151815260200187600481518110611b8757611b8761329b565b60200260200101518152602001856001600160a01b0316815260200187600581518110611bb657611bb661329b565b602002602001015181526020018681525090506000611bd48261220c565b90506000611be6828460e001516122b8565b905082600001516001600160a01b0316816001600160a01b031614611c4d5760405162461bcd60e51b815260206004820152601b60248201527f5468652073656c6c6572206973206e6f7420746865206f776e657200000000006044820152606401610583565b610136600089600581518110611c6557611c6561329b565b6020026020010151815260200190815260200160002060000154600003611d1557604051806040016040528089600381518110611ca457611ca461329b565b6020026020010151815260200189600381518110611cc457611cc461329b565b602002602001015181525061013660008a600581518110611ce757611ce761329b565b6020026020010151815260200190815260200160002060008201518160000155602082015181600101559050505b610136600089600581518110611d2d57611d2d61329b565b6020026020010151815260200190815260200160002060010154851115611d965760405162461bcd60e51b815260206004820152601e60248201527f43616e6e6f7420627579206d6f7265207468616e20617661696c61626c6500006044820152606401610583565b8461013660008a600581518110611daf57611daf61329b565b602002602001015181526020019081526020016000206001016000828254611dd791906133fe565b90915550909998505050505050505050565b60405163152a902d60e11b81526004810185905260248101849052600090819081906001600160a01b03851690632a55205a906044016040805180830381865afa158015611e3b573d6000803e3d6000fd5b505050506040513d601f19601f82011682018060405250810190611e5f91906135ad565b90925090506000611e7082886133fe565b90508115611ef257610135546040516323b872dd60e01b81526001600160a01b03909116906323b872dd90611ead90899087908790600401613415565b6020604051808303816000875af1158015611ecc573d6000803e3d6000fd5b505050506040513d601f19601f82011682018060405250810190611ef09190613439565b505b60408051898152602081018490527fe61af2269c9afbdb69efce2b15f2a464f8ee6237f105b3d4024f2e824a9f0af3910160405180910390a1979650505050505050565b611f4081336122dc565b50565b611f4d8282611698565b610a555760008281526097602090815260408083206001600160a01b03851684529091529020805460ff19166001179055611f853390565b6001600160a01b0316816001600160a01b0316837f2f8788117e7eff1d82e926ec794901d17c78024a50270940304540a733656f0d60405160405180910390a45050565b611fd38282611698565b15610a555760008281526097602090815260408083206001600160a01b0385168085529252808320805460ff1916905551339285917ff6391f5c32d9c69d2a47ea670b442974b53935d1edc7fd64eb21e047a839171b9190a45050565b600054610100900460ff166120575760405162461bcd60e51b8152600401610583906135db565b61205f612340565b565b600054610100900460ff166120885760405162461bcd60e51b8152600401610583906135db565b61205f612373565b600054610100900460ff166120b75760405162461bcd60e51b8152600401610583906135db565b610a5582826123a1565b600054610100900460ff16158080156120e15750600054600160ff909116105b806120fb5750303b1580156120fb575060005460ff166001145b6121175760405162461bcd60e51b815260040161058390613546565b6000805460ff19166001179055801561213a576000805461ff0019166101001790555b6121426123e2565b33600090815260c960205260408120805460ff191660011790555b82518110156121c257600160c9600085848151811061217e5761217e61329b565b6020908102919091018101516001600160a01b03168252810191909152604001600020805460ff1916911515919091179055806121ba81613626565b91505061215d565b508015610a55576000805461ff0019169055604051600181527f7f26b83ff96e1f2b6a682f133852f6798a09c465da95921460cefb38474024989060200160405180910390a15050565b805160208083015160408085015160608087015160808089015160a0808b015160c0808d015189517f69d43cfceecadb059ecc4f790b1d85a39d29706c39b96fe68aadf9b3aee319459c81019c909c526001600160a01b039c8d16998c0199909952958a019890985291880194909452860152840152921660e08201526101008101919091526000906104c3906101200160405160208183030381529060405280519060200120612409565b60008060006122c78585612457565b915091506122d4816124c5565b509392505050565b6122e68282611698565b610a55576122fe816001600160a01b0316601461267b565b61230983602061267b565b60405160200161231a92919061363f565b60408051601f198184030181529082905262461bcd60e51b825261058391600401612ae2565b600054610100900460ff166123675760405162461bcd60e51b8152600401610583906135db565b6033805460ff19169055565b600054610100900460ff1661239a5760405162461bcd60e51b8152600401610583906135db565b600160cb55565b600054610100900460ff166123c85760405162461bcd60e51b8152600401610583906135db565b81516020928301208151919092012060fd9190915560fe55565b600054610100900460ff1661205f5760405162461bcd60e51b8152600401610583906135db565b60006104c361241661281d565b8360405161190160f01b6020820152602281018390526042810182905260009060620160405160208183030381529060405280519060200120905092915050565b600080825160410361248d5760208301516040840151606085015160001a6124818782858561289d565b945094505050506124be565b82516040036124b657602083015160408401516124ab86838361298a565b9350935050506124be565b506000905060025b9250929050565b60008160048111156124d9576124d96136b4565b036124e15750565b60018160048111156124f5576124f56136b4565b036125425760405162461bcd60e51b815260206004820152601860248201527f45434453413a20696e76616c6964207369676e617475726500000000000000006044820152606401610583565b6002816004811115612556576125566136b4565b036125a35760405162461bcd60e51b815260206004820152601f60248201527f45434453413a20696e76616c6964207369676e6174757265206c656e677468006044820152606401610583565b60038160048111156125b7576125b76136b4565b0361260f5760405162461bcd60e51b815260206004820152602260248201527f45434453413a20696e76616c6964207369676e6174757265202773272076616c604482015261756560f01b6064820152608401610583565b6004816004811115612623576126236136b4565b03611f405760405162461bcd60e51b815260206004820152602260248201527f45434453413a20696e76616c6964207369676e6174757265202776272076616c604482015261756560f01b6064820152608401610583565b6060600061268a8360026133bd565b6126959060026133a5565b6001600160401b038111156126ac576126ac612b1a565b6040519080825280601f01601f1916602001820160405280156126d6576020820181803683370190505b509050600360fc1b816000815181106126f1576126f161329b565b60200101906001600160f81b031916908160001a905350600f60fb1b816001815181106127205761272061329b565b60200101906001600160f81b031916908160001a90535060006127448460026133bd565b61274f9060016133a5565b90505b60018111156127c7576f181899199a1a9b1b9c1cb0b131b232b360811b85600f16601081106127835761278361329b565b1a60f81b8282815181106127995761279961329b565b60200101906001600160f81b031916908160001a90535060049490941c936127c0816136ca565b9050612752565b5083156128165760405162461bcd60e51b815260206004820181905260248201527f537472696e67733a20686578206c656e67746820696e73756666696369656e746044820152606401610583565b9392505050565b60006128987f8b73c3c69bb8fe3d512ecc4cf759cc79239f7b179b0ffacaa9a75d522b39400f61284c60fd5490565b60fe546040805160208101859052908101839052606081018290524660808201523060a082015260009060c0016040516020818303038152906040528051906020012090509392505050565b905090565b6000807f7fffffffffffffffffffffffffffffff5d576e7357a4501ddfe92f46681b20a08311156128d45750600090506003612981565b8460ff16601b141580156128ec57508460ff16601c14155b156128fd5750600090506004612981565b6040805160008082526020820180845289905260ff881692820192909252606081018690526080810185905260019060a0016020604051602081039080840390855afa158015612951573d6000803e3d6000fd5b5050604051601f1901519150506001600160a01b03811661297a57600060019250925050612981565b9150600090505b94509492505050565b6000806001600160ff1b038316816129a760ff86901c601b6133a5565b90506129b58782888561289d565b935093505050935093915050565b8280546129cf9061321f565b90600052602060002090601f0160209004810192826129f15760008555612a37565b82601f10612a0a57805160ff1916838001178555612a37565b82800160010185558215612a37579182015b82811115612a37578251825591602001919060010190612a1c565b50612a43929150612a47565b5090565b5b80821115612a435760008155600101612a48565b600060208284031215612a6e57600080fd5b81356001600160e01b03198116811461281657600080fd5b60005b83811015612aa1578181015183820152602001612a89565b83811115612ab0576000848401525b50505050565b60008151808452612ace816020860160208601612a86565b601f01601f19169290920160200192915050565b6020815260006128166020830184612ab6565b6001600160a01b0381168114611f4057600080fd5b8035612b1581612af5565b919050565b634e487b7160e01b600052604160045260246000fd5b604051601f8201601f191681016001600160401b0381118282101715612b5857612b58612b1a565b604052919050565b60006001600160401b03821115612b7957612b79612b1a565b50601f01601f191660200190565b600082601f830112612b9857600080fd5b8135612bab612ba682612b60565b612b30565b818152846020838601011115612bc057600080fd5b816020850160208301376000918101602001919091529392505050565b60008060008060808587031215612bf357600080fd5b8435612bfe81612af5565b93506020850135612c0e81612af5565b92506040850135915060608501356001600160401b03811115612c3057600080fd5b612c3c87828801612b87565b91505092959194509250565b60006001600160401b03821115612c6157612c61612b1a565b5060051b60200190565b600082601f830112612c7c57600080fd5b81356020612c8c612ba683612c48565b82815260059290921b84018101918181019086841115612cab57600080fd5b8286015b84811015612cc65780358352918301918301612caf565b509695505050505050565b60008060008060008060c08789031215612cea57600080fd5b8635612cf581612af5565b95506020870135612d0581612af5565b945060408701356001600160401b0380821115612d2157600080fd5b612d2d8a838b01612c6b565b95506060890135915080821115612d4357600080fd5b50612d5089828a01612b87565b9350506080870135915060a0870135612d6881612af5565b809150509295509295509295565b600060208284031215612d8857600080fd5b5035919050565b600060208284031215612da157600080fd5b813561281681612af5565b60008060408385031215612dbf57600080fd5b823591506020830135612dd181612af5565b809150509250929050565b600080600080600080600060e0888a031215612df757600080fd5b8735612e0281612af5565b965060208801356001600160401b0380821115612e1e57600080fd5b612e2a8b838c01612c6b565b975060408a01359150612e3c82612af5565b90955060608901359080821115612e5257600080fd5b50612e5f8a828b01612b87565b9450506080880135925060a0880135915060c0880135612e7e81612af5565b8091505092959891949750929550565b60008060008060808587031215612ea457600080fd5b8435612eaf81612af5565b935060208501356001600160401b0380821115612ecb57600080fd5b612ed788838901612c6b565b94506040870135915080821115612eed57600080fd5b50612efa87828801612b87565b9250506060850135612f0b81612af5565b939692955090935050565b600080600080600060a08688031215612f2e57600080fd5b8535612f3981612af5565b945060208601356001600160401b0380821115612f5557600080fd5b612f6189838a01612c6b565b95506040880135915080821115612f7757600080fd5b50612f8488828901612b87565b935050606086013591506080860135612f9c81612af5565b809150509295509295909350565b600082601f830112612fbb57600080fd5b81356020612fcb612ba683612c48565b82815260059290921b84018101918181019086841115612fea57600080fd5b8286015b84811015612cc657803561300181612af5565b8352918301918301612fee565b600080600080600080600080610100898b03121561302b57600080fd5b88356001600160401b038082111561304257600080fd5b61304e8c838d01612b87565b995060208b013591508082111561306457600080fd5b6130708c838d01612b87565b985060408b013591508082111561308657600080fd5b6130928c838d01612b87565b975060608b01359150808211156130a857600080fd5b6130b48c838d01612b87565b96506130c260808c01612b0a565b955060a08b01359150808211156130d857600080fd5b506130e58b828c01612faa565b93505060c089013591506130fb60e08a01612b0a565b90509295985092959890939650565b600080600080600060a0868803121561312257600080fd5b853561312d81612af5565b9450602086013561313d81612af5565b935060408601356001600160401b038082111561315957600080fd5b61316589838a01612c6b565b9450606088013591508082111561317b57600080fd5b61318789838a01612c6b565b9350608088013591508082111561319d57600080fd5b506131aa88828901612b87565b9150509295509295909350565b600080600080600060a086880312156131cf57600080fd5b85356131da81612af5565b945060208601356131ea81612af5565b9350604086013592506060860135915060808601356001600160401b0381111561321357600080fd5b6131aa88828901612b87565b600181811c9082168061323357607f821691505b60208210810361325357634e487b7160e01b600052602260045260246000fd5b50919050565b60208082526022908201527f4f6e6c792053656c6c65722063616e2063616c6c20746869732066756e63746960408201526137b760f11b606082015260800190565b634e487b7160e01b600052603260045260246000fd5b60208082526026908201527f43616e6e6f742066696e616c6973652061756374696f6e206265666f726520656040820152656e6474696d6560d01b606082015260800190565b60208082526032908201527f4f6e6c7920556e6c696d6974656420616e642054696d65642041756374696f6e6040820152711cc818d85b88189948119a5b985b1a5cd95960721b606082015260800190565b60208082526026908201527f43616e6e6f742068617665206d6f7265207468616e206f6e6520636f707920666040820152656f722037323160d01b606082015260800190565b634e487b7160e01b600052601160045260246000fd5b600082198211156133b8576133b861338f565b500190565b60008160001904831182151516156133d7576133d761338f565b500290565b6000826133f957634e487b7160e01b600052601260045260246000fd5b500490565b6000828210156134105761341061338f565b500390565b6001600160a01b039384168152919092166020820152604081019190915260600190565b60006020828403121561344b57600080fd5b8151801515811461281657600080fd5b60208082526016908201527529b2b73232b91034b9903737ba1030b71020b236b4b760511b604082015260600190565b60006020828403121561349d57600080fd5b81516001600160401b038111156134b357600080fd5b8201601f810184136134c457600080fd5b80516134d2612ba682612b60565b8181528560208385010111156134e757600080fd5b6134f8826020830160208601612a86565b95945050505050565b6001600160a01b03868116825285166020820152604081018490526060810183905260a06080820181905260009061353b90830184612ab6565b979650505050505050565b6020808252602e908201527f496e697469616c697a61626c653a20636f6e747261637420697320616c72656160408201526d191e481a5b9a5d1a585b1a5e995960921b606082015260800190565b6000602082840312156135a657600080fd5b5051919050565b600080604083850312156135c057600080fd5b82516135cb81612af5565b6020939093015192949293505050565b6020808252602b908201527f496e697469616c697a61626c653a20636f6e7472616374206973206e6f74206960408201526a6e697469616c697a696e6760a81b606082015260800190565b6000600182016136385761363861338f565b5060010190565b7f416363657373436f6e74726f6c3a206163636f756e7420000000000000000000815260008351613677816017850160208801612a86565b7001034b99036b4b9b9b4b733903937b6329607d1b60179184019182015283516136a8816028840160208801612a86565b01602801949350505050565b634e487b7160e01b600052602160045260246000fd5b6000816136d9576136d961338f565b50600019019056fea264697066735822122089fec40f50792efa8aa51ee65d9a799a3a8c3b3d416f6d2c22e53b66b70d017b64736f6c634300080e0033",
    "linkReferences": {},
    "deployedLinkReferences": {}
}