{
    "_format": "hh-sol-artifact-1",
    "contractName": "MarketPlace",
    "sourceName": "contracts/Marketplace.sol",
    "abi": [
        {
            "anonymous": false,
            "inputs": [
                {
                    "indexed": false,
                    "internalType": "address",
                    "name": "newWhitelistAddress",
                    "type": "address"
                }
            ],
            "name": "AddressAddedToWhitelist",
            "type": "event"
        },
        {
            "anonymous": false,
            "inputs": [
                {
                    "indexed": false,
                    "internalType": "address",
                    "name": "removedWhitelistAddress",
                    "type": "address"
                }
            ],
            "name": "AddressRemovedFromWhitelist",
            "type": "event"
        },
        {
            "anonymous": false,
            "inputs": [
                {
                    "indexed": false,
                    "internalType": "uint8",
                    "name": "version",
                    "type": "uint8"
                }
            ],
            "name": "Initialized",
            "type": "event"
        },
        {
            "anonymous": false,
            "inputs": [
                {
                    "indexed": false,
                    "internalType": "address",
                    "name": "newAddress",
                    "type": "address"
                },
                {
                    "indexed": false,
                    "internalType": "address",
                    "name": "senderAddress",
                    "type": "address"
                }
            ],
            "name": "LogFeeAddressUpdated",
            "type": "event"
        },
        {
            "anonymous": false,
            "inputs": [
                {
                    "indexed": false,
                    "internalType": "uint256",
                    "name": "newPercent",
                    "type": "uint256"
                },
                {
                    "indexed": false,
                    "internalType": "address",
                    "name": "senderAddress",
                    "type": "address"
                }
            ],
            "name": "LogFeePercentUpdated",
            "type": "event"
        },
        {
            "anonymous": false,
            "inputs": [
                {
                    "indexed": false,
                    "internalType": "uint256",
                    "name": "auctionType",
                    "type": "uint256"
                },
                {
                    "indexed": false,
                    "internalType": "uint256",
                    "name": "tokenId",
                    "type": "uint256"
                },
                {
                    "indexed": false,
                    "internalType": "address",
                    "name": "buyer",
                    "type": "address"
                },
                {
                    "indexed": false,
                    "internalType": "address",
                    "name": "seller",
                    "type": "address"
                },
                {
                    "indexed": false,
                    "internalType": "uint256",
                    "name": "quantity",
                    "type": "uint256"
                }
            ],
            "name": "LogOrderFinalised1155",
            "type": "event"
        },
        {
            "anonymous": false,
            "inputs": [
                {
                    "indexed": false,
                    "internalType": "uint256",
                    "name": "auctionType",
                    "type": "uint256"
                },
                {
                    "indexed": false,
                    "internalType": "uint256",
                    "name": "tokenId",
                    "type": "uint256"
                },
                {
                    "indexed": false,
                    "internalType": "address",
                    "name": "buyer",
                    "type": "address"
                },
                {
                    "indexed": false,
                    "internalType": "address",
                    "name": "seller",
                    "type": "address"
                }
            ],
            "name": "LogOrderFinalised721",
            "type": "event"
        },
        {
            "anonymous": false,
            "inputs": [
                {
                    "indexed": false,
                    "internalType": "address[]",
                    "name": "_to",
                    "type": "address[]"
                },
                {
                    "indexed": false,
                    "internalType": "uint256[]",
                    "name": "_value",
                    "type": "uint256[]"
                }
            ],
            "name": "LogTransactions",
            "type": "event"
        },
        {
            "anonymous": false,
            "inputs": [
                {
                    "indexed": false,
                    "internalType": "address",
                    "name": "account",
                    "type": "address"
                }
            ],
            "name": "Paused",
            "type": "event"
        },
        {
            "anonymous": false,
            "inputs": [
                {
                    "indexed": true,
                    "internalType": "bytes32",
                    "name": "role",
                    "type": "bytes32"
                },
                {
                    "indexed": true,
                    "internalType": "bytes32",
                    "name": "previousAdminRole",
                    "type": "bytes32"
                },
                {
                    "indexed": true,
                    "internalType": "bytes32",
                    "name": "newAdminRole",
                    "type": "bytes32"
                }
            ],
            "name": "RoleAdminChanged",
            "type": "event"
        },
        {
            "anonymous": false,
            "inputs": [
                {
                    "indexed": true,
                    "internalType": "bytes32",
                    "name": "role",
                    "type": "bytes32"
                },
                {
                    "indexed": true,
                    "internalType": "address",
                    "name": "account",
                    "type": "address"
                },
                {
                    "indexed": true,
                    "internalType": "address",
                    "name": "sender",
                    "type": "address"
                }
            ],
            "name": "RoleGranted",
            "type": "event"
        },
        {
            "anonymous": false,
            "inputs": [
                {
                    "indexed": true,
                    "internalType": "bytes32",
                    "name": "role",
                    "type": "bytes32"
                },
                {
                    "indexed": true,
                    "internalType": "address",
                    "name": "account",
                    "type": "address"
                },
                {
                    "indexed": true,
                    "internalType": "address",
                    "name": "sender",
                    "type": "address"
                }
            ],
            "name": "RoleRevoked",
            "type": "event"
        },
        {
            "anonymous": false,
            "inputs": [
                {
                    "indexed": false,
                    "internalType": "uint256",
                    "name": "tokenId",
                    "type": "uint256"
                },
                {
                    "indexed": false,
                    "internalType": "uint256",
                    "name": "value",
                    "type": "uint256"
                }
            ],
            "name": "RoyaltiesPaid",
            "type": "event"
        },
        {
            "anonymous": false,
            "inputs": [
                {
                    "indexed": false,
                    "internalType": "address",
                    "name": "account",
                    "type": "address"
                }
            ],
            "name": "Unpaused",
            "type": "event"
        },
        {
            "inputs": [],
            "name": "DEFAULT_ADMIN_ROLE",
            "outputs": [
                {
                    "internalType": "bytes32",
                    "name": "",
                    "type": "bytes32"
                }
            ],
            "stateMutability": "view",
            "type": "function"
        },
        {
            "inputs": [
                {
                    "internalType": "address",
                    "name": "addr",
                    "type": "address"
                }
            ],
            "name": "addAddressToWhitelist",
            "outputs": [],
            "stateMutability": "nonpayable",
            "type": "function"
        },
        {
            "inputs": [
                {
                    "internalType": "address",
                    "name": "_owner",
                    "type": "address"
                },
                {
                    "internalType": "uint256[]",
                    "name": "otherParams",
                    "type": "uint256[]"
                },
                {
                    "internalType": "address",
                    "name": "_buyer",
                    "type": "address"
                },
                {
                    "internalType": "bytes",
                    "name": "signature",
                    "type": "bytes"
                },
                {
                    "internalType": "uint256",
                    "name": "bidAmount",
                    "type": "uint256"
                },
                {
                    "internalType": "uint256",
                    "name": "_quantity",
                    "type": "uint256"
                },
                {
                    "internalType": "address",
                    "name": "tokenContract",
                    "type": "address"
                }
            ],
            "name": "auction1155",
            "outputs": [],
            "stateMutability": "nonpayable",
            "type": "function"
        },
        {
            "inputs": [
                {
                    "internalType": "address",
                    "name": "buyer",
                    "type": "address"
                },
                {
                    "internalType": "address",
                    "name": "owner",
                    "type": "address"
                },
                {
                    "internalType": "uint256[]",
                    "name": "otherParams",
                    "type": "uint256[]"
                },
                {
                    "internalType": "bytes",
                    "name": "signature",
                    "type": "bytes"
                },
                {
                    "internalType": "uint256",
                    "name": "bidAmount",
                    "type": "uint256"
                },
                {
                    "internalType": "address",
                    "name": "tokenContract",
                    "type": "address"
                }
            ],
            "name": "auction721",
            "outputs": [
                {
                    "internalType": "bool",
                    "name": "",
                    "type": "bool"
                }
            ],
            "stateMutability": "nonpayable",
            "type": "function"
        },
        {
            "inputs": [
                {
                    "internalType": "uint256",
                    "name": "",
                    "type": "uint256"
                }
            ],
            "name": "auctionDetails",
            "outputs": [
                {
                    "internalType": "uint256",
                    "name": "totalListedQuantity",
                    "type": "uint256"
                },
                {
                    "internalType": "uint256",
                    "name": "quantityLeft",
                    "type": "uint256"
                }
            ],
            "stateMutability": "view",
            "type": "function"
        },
        {
            "inputs": [
                {
                    "internalType": "address",
                    "name": "_owner",
                    "type": "address"
                },
                {
                    "internalType": "uint256[]",
                    "name": "otherParams",
                    "type": "uint256[]"
                },
                {
                    "internalType": "bytes",
                    "name": "signature",
                    "type": "bytes"
                },
                {
                    "internalType": "uint256",
                    "name": "quantity",
                    "type": "uint256"
                },
                {
                    "internalType": "address",
                    "name": "tokenContract",
                    "type": "address"
                }
            ],
            "name": "buy1155",
            "outputs": [],
            "stateMutability": "nonpayable",
            "type": "function"
        },
        {
            "inputs": [
                {
                    "internalType": "address",
                    "name": "_owner",
                    "type": "address"
                },
                {
                    "internalType": "uint256[]",
                    "name": "otherParams",
                    "type": "uint256[]"
                },
                {
                    "internalType": "bytes",
                    "name": "signature",
                    "type": "bytes"
                },
                {
                    "internalType": "address",
                    "name": "tokenContract",
                    "type": "address"
                }
            ],
            "name": "buy721",
            "outputs": [],
            "stateMutability": "nonpayable",
            "type": "function"
        },
        {
            "inputs": [],
            "name": "feeAddress",
            "outputs": [
                {
                    "internalType": "address",
                    "name": "",
                    "type": "address"
                }
            ],
            "stateMutability": "view",
            "type": "function"
        },
        {
            "inputs": [],
            "name": "feePercent",
            "outputs": [
                {
                    "internalType": "uint256",
                    "name": "",
                    "type": "uint256"
                }
            ],
            "stateMutability": "view",
            "type": "function"
        },
        {
            "inputs": [],
            "name": "getChainID",
            "outputs": [
                {
                    "internalType": "uint256",
                    "name": "",
                    "type": "uint256"
                }
            ],
            "stateMutability": "view",
            "type": "function"
        },
        {
            "inputs": [
                {
                    "internalType": "bytes32",
                    "name": "role",
                    "type": "bytes32"
                }
            ],
            "name": "getRoleAdmin",
            "outputs": [
                {
                    "internalType": "bytes32",
                    "name": "",
                    "type": "bytes32"
                }
            ],
            "stateMutability": "view",
            "type": "function"
        },
        {
            "inputs": [
                {
                    "internalType": "bytes32",
                    "name": "role",
                    "type": "bytes32"
                },
                {
                    "internalType": "address",
                    "name": "account",
                    "type": "address"
                }
            ],
            "name": "grantRole",
            "outputs": [],
            "stateMutability": "nonpayable",
            "type": "function"
        },
        {
            "inputs": [
                {
                    "internalType": "bytes32",
                    "name": "role",
                    "type": "bytes32"
                },
                {
                    "internalType": "address",
                    "name": "account",
                    "type": "address"
                }
            ],
            "name": "hasRole",
            "outputs": [
                {
                    "internalType": "bool",
                    "name": "",
                    "type": "bool"
                }
            ],
            "stateMutability": "view",
            "type": "function"
        },
        {
            "inputs": [
                {
                    "internalType": "string",
                    "name": "_name",
                    "type": "string"
                },
                {
                    "internalType": "string",
                    "name": "_symbol",
                    "type": "string"
                },
                {
                    "internalType": "string",
                    "name": "signDomain",
                    "type": "string"
                },
                {
                    "internalType": "string",
                    "name": "signVersion",
                    "type": "string"
                },
                {
                    "internalType": "address",
                    "name": "_feeAddress",
                    "type": "address"
                },
                {
                    "internalType": "address[]",
                    "name": "_whitelistAddresses",
                    "type": "address[]"
                },
                {
                    "internalType": "uint256",
                    "name": "_feePercent",
                    "type": "uint256"
                },
                {
                    "internalType": "address",
                    "name": "_wethAddr",
                    "type": "address"
                }
            ],
            "name": "initialize",
            "outputs": [],
            "stateMutability": "nonpayable",
            "type": "function"
        },
        {
            "inputs": [],
            "name": "name",
            "outputs": [
                {
                    "internalType": "string",
                    "name": "",
                    "type": "string"
                }
            ],
            "stateMutability": "view",
            "type": "function"
        },
        {
            "inputs": [
                {
                    "internalType": "address",
                    "name": "",
                    "type": "address"
                },
                {
                    "internalType": "address",
                    "name": "",
                    "type": "address"
                },
                {
                    "internalType": "uint256[]",
                    "name": "",
                    "type": "uint256[]"
                },
                {
                    "internalType": "uint256[]",
                    "name": "",
                    "type": "uint256[]"
                },
                {
                    "internalType": "bytes",
                    "name": "",
                    "type": "bytes"
                }
            ],
            "name": "onERC1155BatchReceived",
            "outputs": [
                {
                    "internalType": "bytes4",
                    "name": "",
                    "type": "bytes4"
                }
            ],
            "stateMutability": "pure",
            "type": "function"
        },
        {
            "inputs": [
                {
                    "internalType": "address",
                    "name": "",
                    "type": "address"
                },
                {
                    "internalType": "address",
                    "name": "",
                    "type": "address"
                },
                {
                    "internalType": "uint256",
                    "name": "",
                    "type": "uint256"
                },
                {
                    "internalType": "uint256",
                    "name": "",
                    "type": "uint256"
                },
                {
                    "internalType": "bytes",
                    "name": "",
                    "type": "bytes"
                }
            ],
            "name": "onERC1155Received",
            "outputs": [
                {
                    "internalType": "bytes4",
                    "name": "",
                    "type": "bytes4"
                }
            ],
            "stateMutability": "pure",
            "type": "function"
        },
        {
            "inputs": [
                {
                    "internalType": "address",
                    "name": "",
                    "type": "address"
                },
                {
                    "internalType": "address",
                    "name": "",
                    "type": "address"
                },
                {
                    "internalType": "uint256",
                    "name": "",
                    "type": "uint256"
                },
                {
                    "internalType": "bytes",
                    "name": "",
                    "type": "bytes"
                }
            ],
            "name": "onERC721Received",
            "outputs": [
                {
                    "internalType": "bytes4",
                    "name": "",
                    "type": "bytes4"
                }
            ],
            "stateMutability": "pure",
            "type": "function"
        },
        {
            "inputs": [],
            "name": "paused",
            "outputs": [
                {
                    "internalType": "bool",
                    "name": "",
                    "type": "bool"
                }
            ],
            "stateMutability": "view",
            "type": "function"
        },
        {
            "inputs": [
                {
                    "internalType": "address",
                    "name": "addr",
                    "type": "address"
                }
            ],
            "name": "removeAddressFromWhitelist",
            "outputs": [],
            "stateMutability": "nonpayable",
            "type": "function"
        },
        {
            "inputs": [
                {
                    "internalType": "bytes32",
                    "name": "role",
                    "type": "bytes32"
                },
                {
                    "internalType": "address",
                    "name": "account",
                    "type": "address"
                }
            ],
            "name": "renounceRole",
            "outputs": [],
            "stateMutability": "nonpayable",
            "type": "function"
        },
        {
            "inputs": [
                {
                    "internalType": "bytes32",
                    "name": "role",
                    "type": "bytes32"
                },
                {
                    "internalType": "address",
                    "name": "account",
                    "type": "address"
                }
            ],
            "name": "revokeRole",
            "outputs": [],
            "stateMutability": "nonpayable",
            "type": "function"
        },
        {
            "inputs": [
                {
                    "internalType": "address[]",
                    "name": "_to",
                    "type": "address[]"
                },
                {
                    "internalType": "uint256[]",
                    "name": "_value",
                    "type": "uint256[]"
                }
            ],
            "name": "sendEth",
            "outputs": [
                {
                    "internalType": "uint256",
                    "name": "",
                    "type": "uint256"
                }
            ],
            "stateMutability": "payable",
            "type": "function"
        },
        {
            "inputs": [
                {
                    "internalType": "bytes4",
                    "name": "interfaceId",
                    "type": "bytes4"
                }
            ],
            "name": "supportsInterface",
            "outputs": [
                {
                    "internalType": "bool",
                    "name": "",
                    "type": "bool"
                }
            ],
            "stateMutability": "view",
            "type": "function"
        },
        {
            "inputs": [],
            "name": "symbol",
            "outputs": [
                {
                    "internalType": "string",
                    "name": "",
                    "type": "string"
                }
            ],
            "stateMutability": "view",
            "type": "function"
        },
        {
            "inputs": [
                {
                    "internalType": "address",
                    "name": "_newFeeAddress",
                    "type": "address"
                }
            ],
            "name": "updateFeeAddress",
            "outputs": [],
            "stateMutability": "nonpayable",
            "type": "function"
        },
        {
            "inputs": [
                {
                    "internalType": "uint256",
                    "name": "_newFeePercent",
                    "type": "uint256"
                }
            ],
            "name": "updateFeeAddress",
            "outputs": [],
            "stateMutability": "nonpayable",
            "type": "function"
        }
    ],
    "bytecode": "0x608060405234801561001057600080fd5b50613747806100206000396000f3fe60806040526004361061019c5760003560e01c80635c975abb116100ec578063a217fddf1161008a578063c7785d8111610064578063c7785d811461051c578063d34c9d5e1461053c578063d547741f1461055c578063f23a6e611461057c57600080fd5b8063a217fddf146104a2578063bbcaac38146104b7578063bc197c81146104d757600080fd5b80638603d31a116100c65780638603d31a1461040357806390ca96a61461044d57806391d148541461046d57806395d89b411461048d57600080fd5b80635c975abb146103b45780637b9417c8146103cc5780637fd6f15c146103ec57600080fd5b80632f2ff15d1161015957806345b153411161013357806345b153411461034157806352d5c55a1461036157806352ea708e14610381578063564b81ef146103a157600080fd5b80632f2ff15d146102c857806336568abe146102e8578063412753581461030857600080fd5b806301ffc9a7146101a157806306fdde03146101d6578063150b7a02146101f8578063248a9ca31461025557806325245b2614610293578063286dd3f5146102a6575b600080fd5b3480156101ad57600080fd5b506101c16101bc366004612989565b6105c1565b60405190151581526020015b60405180910390f35b3480156101e257600080fd5b506101eb6105d2565b6040516101cd9190612a0f565b34801561020457600080fd5b5061023c610213366004612b0a565b7f150b7a023d4804d13e8c85fb27262cb750cf6ba9f9dd3bb30d90f482ceeb4b1f949350505050565b6040516001600160e01b031990911681526020016101cd565b34801561026157600080fd5b50610285610270366004612b75565b60009081526097602052604090206001015490565b6040519081526020016101cd565b6102856102a1366004612c7b565b610661565b3480156102b257600080fd5b506102c66102c1366004612cde565b6107df565b005b3480156102d457600080fd5b506102c66102e3366004612cfb565b61086f565b3480156102f457600080fd5b506102c6610303366004612cfb565b610899565b34801561031457600080fd5b5061013154610329906001600160a01b031681565b6040516001600160a01b0390911681526020016101cd565b34801561034d57600080fd5b506102c661035c366004612d2b565b610917565b34801561036d57600080fd5b506101c161037c366004612db3565b610c5e565b34801561038d57600080fd5b506102c661039c366004612e58565b61101f565b3480156103ad57600080fd5b5046610285565b3480156103c057600080fd5b5060335460ff166101c1565b3480156103d857600080fd5b506102c66103e7366004612cde565b611392565b3480156103f857600080fd5b506102856101325481565b34801561040f57600080fd5b5061043861041e366004612b75565b610137602052600090815260409020805460019091015482565b604080519283526020830191909152016101cd565b34801561045957600080fd5b506102c6610468366004612f0a565b611415565b34801561047957600080fd5b506101c1610488366004612cfb565b611564565b34801561049957600080fd5b506101eb61158f565b3480156104ae57600080fd5b50610285600081565b3480156104c357600080fd5b506102c66104d2366004612cde565b61159d565b3480156104e357600080fd5b5061023c6104f2366004613006565b7fc690df554309250a278186339f107582200b4b254ae59248cb85e8eaa675b80895945050505050565b34801561052857600080fd5b506102c6610537366004612b75565b611620565b34801561054857600080fd5b506102c66105573660046130b3565b61168a565b34801561056857600080fd5b506102c6610577366004612cfb565b611a2b565b34801561058857600080fd5b5061023c610597366004613147565b7ff23a6e612e1ff4830e658fe43f4e3cb4a5f8170bd5d9e69fb5d7a7fa9e4fdf9795945050505050565b60006105cc82611a50565b92915050565b61013380546105e0906131af565b80601f016020809104026020016040519081016040528092919081815260200182805461060c906131af565b80156106595780601f1061062e57610100808354040283529160200191610659565b820191906000526020600020905b81548152906001019060200180831161063c57829003601f168201915b505050505081565b600061067261013680546001019055565b8151835114610683576106836131e9565b60ff83511115610695576106956131e9565b346000805b85518160ff16101561075457848160ff16815181106106bb576106bb6131ff565b6020026020010151826106ce919061322b565b9150858160ff16815181106106e5576106e56131ff565b60200260200101516001600160a01b03166108fc868360ff168151811061070e5761070e6131ff565b60200260200101519081150290604051600060405180830381858888f19350505050158015610741573d6000803e3d6000fd5b508061074c81613243565b91505061069a565b5060006107618284613262565b9050801561079857604051339082156108fc029083906000818181858888f19350505050158015610796573d6000803e3d6000fd5b505b7f93641068fbf43f7eb82250276ed0c7055825027ad21cf4af6e9c9014302ef3dd86866040516107c9929190613279565b60405180910390a1610136549695505050505050565b33600090815260c9602052604090205460ff166108175760405162461bcd60e51b815260040161080e906132fd565b60405180910390fd5b6001600160a01b038116600081815260c96020908152604091829020805460ff1916905590519182527f535611fb62fa2a833988f283b779e417e996813e44046f521d76c17b5943b08c91015b60405180910390a150565b60008281526097602052604090206001015461088a81611a85565b6108948383611a92565b505050565b6001600160a01b03811633146109095760405162461bcd60e51b815260206004820152602f60248201527f416363657373436f6e74726f6c3a2063616e206f6e6c792072656e6f756e636560448201526e103937b632b9903337b91039b2b63360891b606482015260840161080e565b6109138282611b18565b5050565b8260028151811061092a5761092a6131ff565b60200260200101516001146109815760405162461bcd60e51b815260206004820152601f60248201527f41756374696f6e206e6565647320746f20626520466978656420507269636500604482015260640161080e565b82600381518110610994576109946131ff565b60200260200101516001146109bb5760405162461bcd60e51b815260040161080e9061332d565b60006109cb858585856001611b7f565b905060008290506000606461013254876001815181106109ed576109ed6131ff565b60200260200101516109ff9190613373565b610a099190613392565b90506000610a5387600081518110610a2357610a236131ff565b602002602001015188600181518110610a3e57610a3e6131ff565b6020026020010151610a4d3390565b86611e72565b61013554610131546040516323b872dd60e01b81529293506001600160a01b03918216926323b872dd92610a9092339291169087906004016133b4565b6020604051808303816000875af1158015610aaf573d6000803e3d6000fd5b505050506040513d601f19601f82011682018060405250810190610ad391906133d8565b50610135546001600160a01b03166323b872dd3386846040518463ffffffff1660e01b8152600401610b07939291906133b4565b6020604051808303816000875af1158015610b26573d6000803e3d6000fd5b505050506040513d601f19601f82011682018060405250810190610b4a91906133d8565b506001600160a01b0383166342842e0e85338a600081518110610b6f57610b6f6131ff565b60200260200101516040518463ffffffff1660e01b8152600401610b95939291906133b4565b600060405180830381600087803b158015610baf57600080fd5b505af1158015610bc3573d6000803e3d6000fd5b505050507f2a5472f7e1edec56a788c8dc163113da7ae5a002987659a779e09b757a70acce87600281518110610bfb57610bfb6131ff565b602002602001015188600081518110610c1657610c166131ff565b6020026020010151610c253390565b6040805193845260208401929092526001600160a01b039081168383015287166060830152519081900360800190a15050505050505050565b6000856001600160a01b0381163314610c895760405162461bcd60e51b815260040161080e906133fa565b85600481518110610c9c57610c9c6131ff565b602002602001015142811115610cc45760405162461bcd60e51b815260040161080e9061343c565b86600281518110610cd757610cd76131ff565b602002602001015160021480610d07575086600281518110610cfb57610cfb6131ff565b60200260200101516003145b610d235760405162461bcd60e51b815260040161080e90613482565b86600381518110610d3657610d366131ff565b6020026020010151600114610d5d5760405162461bcd60e51b815260040161080e9061332d565b6000610d6d898989886001611b7f565b610132549091508590600090610d8490606461322b565b61013254610d92908a613373565b610d9c9190613392565b90506000610dd18b600081518110610db657610db66131ff565b6020026020010151838b610dca9190613262565b8f86611e72565b905061013560009054906101000a90046001600160a01b03166001600160a01b03166323b872dd8e61013160009054906101000a90046001600160a01b0316856040518463ffffffff1660e01b8152600401610e2f939291906133b4565b6020604051808303816000875af1158015610e4e573d6000803e3d6000fd5b505050506040513d601f19601f82011682018060405250810190610e7291906133d8565b5061013560009054906101000a90046001600160a01b03166001600160a01b03166323b872dd8e86846040518463ffffffff1660e01b8152600401610eb9939291906133b4565b6020604051808303816000875af1158015610ed8573d6000803e3d6000fd5b505050506040513d601f19601f82011682018060405250810190610efc91906133d8565b50826001600160a01b03166342842e0e858f8e600081518110610f2157610f216131ff565b60200260200101516040518463ffffffff1660e01b8152600401610f47939291906133b4565b600060405180830381600087803b158015610f6157600080fd5b505af1158015610f75573d6000803e3d6000fd5b505050507f2a5472f7e1edec56a788c8dc163113da7ae5a002987659a779e09b757a70acce8b600281518110610fad57610fad6131ff565b60200260200101518c600081518110610fc857610fc86131ff565b60200260200101518f87604051611004949392919093845260208401929092526001600160a01b03908116604084015216606082015260800190565b60405180910390a15060019c9b505050505050505050505050565b866001600160a01b03811633146110485760405162461bcd60e51b815260040161080e906133fa565b8660048151811061105b5761105b6131ff565b6020026020010151428111156110835760405162461bcd60e51b815260040161080e9061343c565b600088600281518110611098576110986131ff565b60209081029190910101519050878560028314806110b65750826003145b6110d25760405162461bcd60e51b815260040161080e90613482565b60008b6000815181106110e7576110e76131ff565b6020026020010151905060006111008e8e8d8b87611b7f565b905087600061110f858d613373565b90506000610132546064611123919061322b565b610132546111319084613373565b61113b9190613392565b905060006111548661114d8486613262565b8a87611e72565b61013554610131546040516323b872dd60e01b81529293506001600160a01b03918216926323b872dd92611191928d9291169087906004016133b4565b6020604051808303816000875af11580156111b0573d6000803e3d6000fd5b505050506040513d601f19601f820116820180604052508101906111d491906133d8565b50610135546040516323b872dd60e01b81526001600160a01b03909116906323b872dd9061120a908b90899086906004016133b4565b6020604051808303816000875af1158015611229573d6000803e3d6000fd5b505050506040513d601f19601f8201168201806040525081019061124d91906133d8565b50836001600160a01b031663f242432a868a898b896001600160a01b0316630e89341c8d6040518263ffffffff1660e01b815260040161128f91815260200190565b600060405180830381865afa1580156112ac573d6000803e3d6000fd5b505050506040513d6000823e601f3d908101601f191682016040526112d491908101906134d4565b6040518663ffffffff1660e01b81526004016112f495949392919061354a565b600060405180830381600087803b15801561130e57600080fd5b505af1158015611322573d6000803e3d6000fd5b5050604080518c8152602081018a90526001600160a01b038c81168284015289166060820152608081018b905290517f4b6b06156a684cb26d0d192431fb4cf20742e94ab9ec131e2ee06fbc84e4cdda93509081900360a0019150a1505050505050505050505050505050505050565b33600090815260c9602052604090205460ff166113c15760405162461bcd60e51b815260040161080e906132fd565b6001600160a01b038116600081815260c96020908152604091829020805460ff1916600117905590519182527f534d18c8ff24ba5980906d732f3075704749427353734fbbf05d50485643b1249101610864565b600054610100900460ff16158080156114355750600054600160ff909116105b8061144f5750303b15801561144f575060005460ff166001145b61146b5760405162461bcd60e51b815260040161080e9061358f565b6000805460ff19166001179055801561148e576000805461ff0019166101001790555b88516114a2906101339060208c01906128f0565b5087516114b7906101349060208b01906128f0565b506114c0611fbf565b6114c8611ff0565b6114d2878761201f565b6114db84612050565b61013180546001600160a01b038088166001600160a01b0319928316179092556101328590556101358054928516929091169190911790558015611559576000805461ff0019169055604051600181527f7f26b83ff96e1f2b6a682f133852f6798a09c465da95921460cefb38474024989060200160405180910390a15b505050505050505050565b60009182526097602090815260408084206001600160a01b0393909316845291905290205460ff1690565b61013480546105e0906131af565b33600090815260c9602052604090205460ff166115cc5760405162461bcd60e51b815260040161080e906132fd565b61013180546001600160a01b0319166001600160a01b038316908117909155604080519182523360208301527f63b4885fb7b7b5c7e2a26b5f8ab210a357d7f0f80f13c12ce076cc32648b22159101610864565b33600090815260c9602052604090205460ff1661164f5760405162461bcd60e51b815260040161080e906132fd565b610132819055604080518281523360208201527fe80bc82f0677ef7798f9a178492ba2b28a14836563447982e45899546312c6889101610864565b8360028151811061169d5761169d6131ff565b60200260200101516001146116f45760405162461bcd60e51b815260206004820152601f60248201527f41756374696f6e206e6565647320746f20626520466978656420507269636500604482015260640161080e565b60006117038686868587611b7f565b9050600082905060008487600181518110611720576117206131ff565b60200260200101516117329190613373565b9050600087600081518110611749576117496131ff565b602002602001015190506000606461013254846117669190613373565b6117709190613392565b905060006117a08a60008151811061178a5761178a6131ff565b60200260200101518561179a3390565b88611e72565b61013554610131546040516323b872dd60e01b81529293506001600160a01b03918216926323b872dd926117dd92339291169087906004016133b4565b6020604051808303816000875af11580156117fc573d6000803e3d6000fd5b505050506040513d601f19601f8201168201806040525081019061182091906133d8565b50610135546001600160a01b03166323b872dd3388846040518463ffffffff1660e01b8152600401611854939291906133b4565b6020604051808303816000875af1158015611873573d6000803e3d6000fd5b505050506040513d601f19601f8201168201806040525081019061189791906133d8565b506001600160a01b03851663f242432a87338d6000815181106118bc576118bc6131ff565b60200260200101518c8a6001600160a01b0316630e89341c8a6040518263ffffffff1660e01b81526004016118f391815260200190565b600060405180830381865afa158015611910573d6000803e3d6000fd5b505050506040513d6000823e601f3d908101601f1916820160405261193891908101906134d4565b6040518663ffffffff1660e01b815260040161195895949392919061354a565b600060405180830381600087803b15801561197257600080fd5b505af1158015611986573d6000803e3d6000fd5b505050507f4b6b06156a684cb26d0d192431fb4cf20742e94ab9ec131e2ee06fbc84e4cdda8a6002815181106119be576119be6131ff565b60200260200101518b6000815181106119d9576119d96131ff565b60200260200101516119e83390565b6040805193845260208401929092526001600160a01b039081168383015289166060830152608082018b9052519081900360a00190a15050505050505050505050565b600082815260976020526040902060010154611a4681611a85565b6108948383611b18565b60006001600160e01b03198216637965db0b60e01b14806105cc57506301ffc9a760e01b6001600160e01b03198316146105cc565b611a8f813361219b565b50565b611a9c8282611564565b6109135760008281526097602090815260408083206001600160a01b03851684529091529020805460ff19166001179055611ad43390565b6001600160a01b0316816001600160a01b0316837f2f8788117e7eff1d82e926ec794901d17c78024a50270940304540a733656f0d60405160405180910390a45050565b611b228282611564565b156109135760008281526097602090815260408083206001600160a01b0385168085529252808320805460ff1916905551339285917ff6391f5c32d9c69d2a47ea670b442974b53935d1edc7fd64eb21e047a839171b9190a45050565b600080604051806101000160405280886001600160a01b0316815260200187600181518110611bb057611bb06131ff565b6020026020010151815260200187600281518110611bd057611bd06131ff565b6020026020010151815260200187600381518110611bf057611bf06131ff565b6020026020010151815260200187600481518110611c1057611c106131ff565b60200260200101518152602001856001600160a01b0316815260200187600581518110611c3f57611c3f6131ff565b602002602001015181526020018681525090506000611c5d826121ff565b90506000611c6f828460e001516122ab565b905082600001516001600160a01b0316816001600160a01b031614611cd65760405162461bcd60e51b815260206004820152601b60248201527f5468652073656c6c6572206973206e6f7420746865206f776e65720000000000604482015260640161080e565b610137600089600581518110611cee57611cee6131ff565b6020026020010151815260200190815260200160002060000154600003611d9e57604051806040016040528089600381518110611d2d57611d2d6131ff565b6020026020010151815260200189600381518110611d4d57611d4d6131ff565b602002602001015181525061013760008a600581518110611d7057611d706131ff565b6020026020010151815260200190815260200160002060008201518160000155602082015181600101559050505b610137600089600581518110611db657611db66131ff565b6020026020010151815260200190815260200160002060010154851115611e1f5760405162461bcd60e51b815260206004820152601e60248201527f43616e6e6f7420627579206d6f7265207468616e20617661696c61626c650000604482015260640161080e565b8461013760008a600581518110611e3857611e386131ff565b602002602001015181526020019081526020016000206001016000828254611e609190613262565b90915550909998505050505050505050565b60405163152a902d60e11b81526004810185905260248101849052600090819081906001600160a01b03851690632a55205a906044016040805180830381865afa158015611ec4573d6000803e3d6000fd5b505050506040513d601f19601f82011682018060405250810190611ee891906135dd565b90925090506000611ef98288613262565b90508115611f7b57610135546040516323b872dd60e01b81526001600160a01b03909116906323b872dd90611f36908990879087906004016133b4565b6020604051808303816000875af1158015611f55573d6000803e3d6000fd5b505050506040513d601f19601f82011682018060405250810190611f7991906133d8565b505b60408051898152602081018490527fe61af2269c9afbdb69efce2b15f2a464f8ee6237f105b3d4024f2e824a9f0af3910160405180910390a1979650505050505050565b600054610100900460ff16611fe65760405162461bcd60e51b815260040161080e9061360b565b611fee6122cf565b565b600054610100900460ff166120175760405162461bcd60e51b815260040161080e9061360b565b611fee612302565b600054610100900460ff166120465760405162461bcd60e51b815260040161080e9061360b565b6109138282612330565b600054610100900460ff16158080156120705750600054600160ff909116105b8061208a5750303b15801561208a575060005460ff166001145b6120a65760405162461bcd60e51b815260040161080e9061358f565b6000805460ff1916600117905580156120c9576000805461ff0019166101001790555b6120d1612371565b33600090815260c960205260408120805460ff191660011790555b825181101561215157600160c9600085848151811061210d5761210d6131ff565b6020908102919091018101516001600160a01b03168252810191909152604001600020805460ff19169115159190911790558061214981613656565b9150506120ec565b508015610913576000805461ff0019169055604051600181527f7f26b83ff96e1f2b6a682f133852f6798a09c465da95921460cefb38474024989060200160405180910390a15050565b6121a58282611564565b610913576121bd816001600160a01b03166014612398565b6121c8836020612398565b6040516020016121d992919061366f565b60408051601f198184030181529082905262461bcd60e51b825261080e91600401612a0f565b805160208083015160408085015160608087015160808089015160a0808b015160c0808d015189517f69d43cfceecadb059ecc4f790b1d85a39d29706c39b96fe68aadf9b3aee319459c81019c909c526001600160a01b039c8d16998c0199909952958a019890985291880194909452860152840152921660e08201526101008101919091526000906105cc90610120016040516020818303038152906040528051906020012061253a565b60008060006122ba8585612588565b915091506122c7816125cd565b509392505050565b600054610100900460ff166122f65760405162461bcd60e51b815260040161080e9061360b565b6033805460ff19169055565b600054610100900460ff166123295760405162461bcd60e51b815260040161080e9061360b565b600160cb55565b600054610100900460ff166123575760405162461bcd60e51b815260040161080e9061360b565b81516020928301208151919092012060fd9190915560fe55565b600054610100900460ff16611fee5760405162461bcd60e51b815260040161080e9061360b565b606060006123a7836002613373565b6123b290600261322b565b6001600160401b038111156123c9576123c9612a47565b6040519080825280601f01601f1916602001820160405280156123f3576020820181803683370190505b509050600360fc1b8160008151811061240e5761240e6131ff565b60200101906001600160f81b031916908160001a905350600f60fb1b8160018151811061243d5761243d6131ff565b60200101906001600160f81b031916908160001a9053506000612461846002613373565b61246c90600161322b565b90505b60018111156124e4576f181899199a1a9b1b9c1cb0b131b232b360811b85600f16601081106124a0576124a06131ff565b1a60f81b8282815181106124b6576124b66131ff565b60200101906001600160f81b031916908160001a90535060049490941c936124dd816136e4565b905061246f565b5083156125335760405162461bcd60e51b815260206004820181905260248201527f537472696e67733a20686578206c656e67746820696e73756666696369656e74604482015260640161080e565b9392505050565b60006105cc612547612783565b8360405161190160f01b6020820152602281018390526042810182905260009060620160405160208183030381529060405280519060200120905092915050565b60008082516041036125be5760208301516040840151606085015160001a6125b287828585612803565b945094505050506125c6565b506000905060025b9250929050565b60008160048111156125e1576125e16136fb565b036125e95750565b60018160048111156125fd576125fd6136fb565b0361264a5760405162461bcd60e51b815260206004820152601860248201527f45434453413a20696e76616c6964207369676e61747572650000000000000000604482015260640161080e565b600281600481111561265e5761265e6136fb565b036126ab5760405162461bcd60e51b815260206004820152601f60248201527f45434453413a20696e76616c6964207369676e6174757265206c656e67746800604482015260640161080e565b60038160048111156126bf576126bf6136fb565b036127175760405162461bcd60e51b815260206004820152602260248201527f45434453413a20696e76616c6964207369676e6174757265202773272076616c604482015261756560f01b606482015260840161080e565b600481600481111561272b5761272b6136fb565b03611a8f5760405162461bcd60e51b815260206004820152602260248201527f45434453413a20696e76616c6964207369676e6174757265202776272076616c604482015261756560f01b606482015260840161080e565b60006127fe7f8b73c3c69bb8fe3d512ecc4cf759cc79239f7b179b0ffacaa9a75d522b39400f6127b260fd5490565b60fe546040805160208101859052908101839052606081018290524660808201523060a082015260009060c0016040516020818303038152906040528051906020012090509392505050565b905090565b6000807f7fffffffffffffffffffffffffffffff5d576e7357a4501ddfe92f46681b20a083111561283a57506000905060036128e7565b8460ff16601b1415801561285257508460ff16601c14155b1561286357506000905060046128e7565b6040805160008082526020820180845289905260ff881692820192909252606081018690526080810185905260019060a0016020604051602081039080840390855afa1580156128b7573d6000803e3d6000fd5b5050604051601f1901519150506001600160a01b0381166128e0576000600192509250506128e7565b9150600090505b94509492505050565b8280546128fc906131af565b90600052602060002090601f01602090048101928261291e5760008555612964565b82601f1061293757805160ff1916838001178555612964565b82800160010185558215612964579182015b82811115612964578251825591602001919060010190612949565b50612970929150612974565b5090565b5b808211156129705760008155600101612975565b60006020828403121561299b57600080fd5b81356001600160e01b03198116811461253357600080fd5b60005b838110156129ce5781810151838201526020016129b6565b838111156129dd576000848401525b50505050565b600081518084526129fb8160208601602086016129b3565b601f01601f19169290920160200192915050565b60208152600061253360208301846129e3565b6001600160a01b0381168114611a8f57600080fd5b8035612a4281612a22565b919050565b634e487b7160e01b600052604160045260246000fd5b604051601f8201601f191681016001600160401b0381118282101715612a8557612a85612a47565b604052919050565b60006001600160401b03821115612aa657612aa6612a47565b50601f01601f191660200190565b600082601f830112612ac557600080fd5b8135612ad8612ad382612a8d565b612a5d565b818152846020838601011115612aed57600080fd5b816020850160208301376000918101602001919091529392505050565b60008060008060808587031215612b2057600080fd5b8435612b2b81612a22565b93506020850135612b3b81612a22565b92506040850135915060608501356001600160401b03811115612b5d57600080fd5b612b6987828801612ab4565b91505092959194509250565b600060208284031215612b8757600080fd5b5035919050565b60006001600160401b03821115612ba757612ba7612a47565b5060051b60200190565b600082601f830112612bc257600080fd5b81356020612bd2612ad383612b8e565b82815260059290921b84018101918181019086841115612bf157600080fd5b8286015b84811015612c15578035612c0881612a22565b8352918301918301612bf5565b509695505050505050565b600082601f830112612c3157600080fd5b81356020612c41612ad383612b8e565b82815260059290921b84018101918181019086841115612c6057600080fd5b8286015b84811015612c155780358352918301918301612c64565b60008060408385031215612c8e57600080fd5b82356001600160401b0380821115612ca557600080fd5b612cb186838701612bb1565b93506020850135915080821115612cc757600080fd5b50612cd485828601612c20565b9150509250929050565b600060208284031215612cf057600080fd5b813561253381612a22565b60008060408385031215612d0e57600080fd5b823591506020830135612d2081612a22565b809150509250929050565b60008060008060808587031215612d4157600080fd5b8435612d4c81612a22565b935060208501356001600160401b0380821115612d6857600080fd5b612d7488838901612c20565b94506040870135915080821115612d8a57600080fd5b50612d9787828801612ab4565b9250506060850135612da881612a22565b939692955090935050565b60008060008060008060c08789031215612dcc57600080fd5b8635612dd781612a22565b95506020870135612de781612a22565b945060408701356001600160401b0380821115612e0357600080fd5b612e0f8a838b01612c20565b95506060890135915080821115612e2557600080fd5b50612e3289828a01612ab4565b9350506080870135915060a0870135612e4a81612a22565b809150509295509295509295565b600080600080600080600060e0888a031215612e7357600080fd5b8735612e7e81612a22565b965060208801356001600160401b0380821115612e9a57600080fd5b612ea68b838c01612c20565b975060408a01359150612eb882612a22565b90955060608901359080821115612ece57600080fd5b50612edb8a828b01612ab4565b9450506080880135925060a0880135915060c0880135612efa81612a22565b8091505092959891949750929550565b600080600080600080600080610100898b031215612f2757600080fd5b88356001600160401b0380821115612f3e57600080fd5b612f4a8c838d01612ab4565b995060208b0135915080821115612f6057600080fd5b612f6c8c838d01612ab4565b985060408b0135915080821115612f8257600080fd5b612f8e8c838d01612ab4565b975060608b0135915080821115612fa457600080fd5b612fb08c838d01612ab4565b9650612fbe60808c01612a37565b955060a08b0135915080821115612fd457600080fd5b50612fe18b828c01612bb1565b93505060c08901359150612ff760e08a01612a37565b90509295985092959890939650565b600080600080600060a0868803121561301e57600080fd5b853561302981612a22565b9450602086013561303981612a22565b935060408601356001600160401b038082111561305557600080fd5b61306189838a01612c20565b9450606088013591508082111561307757600080fd5b61308389838a01612c20565b9350608088013591508082111561309957600080fd5b506130a688828901612ab4565b9150509295509295909350565b600080600080600060a086880312156130cb57600080fd5b85356130d681612a22565b945060208601356001600160401b03808211156130f257600080fd5b6130fe89838a01612c20565b9550604088013591508082111561311457600080fd5b5061312188828901612ab4565b93505060608601359150608086013561313981612a22565b809150509295509295909350565b600080600080600060a0868803121561315f57600080fd5b853561316a81612a22565b9450602086013561317a81612a22565b9350604086013592506060860135915060808601356001600160401b038111156131a357600080fd5b6130a688828901612ab4565b600181811c908216806131c357607f821691505b6020821081036131e357634e487b7160e01b600052602260045260246000fd5b50919050565b634e487b7160e01b600052600160045260246000fd5b634e487b7160e01b600052603260045260246000fd5b634e487b7160e01b600052601160045260246000fd5b6000821982111561323e5761323e613215565b500190565b600060ff821660ff810361325957613259613215565b60010192915050565b60008282101561327457613274613215565b500390565b604080825283519082018190526000906020906060840190828701845b828110156132bb5781516001600160a01b031684529284019290840190600101613296565b5050508381038285015284518082528583019183019060005b818110156132f0578351835292840192918401916001016132d4565b5090979650505050505050565b60208082526016908201527529b2b73232b91034b9903737ba1030b71020b236b4b760511b604082015260600190565b60208082526026908201527f43616e6e6f742068617665206d6f7265207468616e206f6e6520636f707920666040820152656f722037323160d01b606082015260800190565b600081600019048311821515161561338d5761338d613215565b500290565b6000826133af57634e487b7160e01b600052601260045260246000fd5b500490565b6001600160a01b039384168152919092166020820152604081019190915260600190565b6000602082840312156133ea57600080fd5b8151801515811461253357600080fd5b60208082526022908201527f4f6e6c792053656c6c65722063616e2063616c6c20746869732066756e63746960408201526137b760f11b606082015260800190565b60208082526026908201527f43616e6e6f742066696e616c6973652061756374696f6e206265666f726520656040820152656e6474696d6560d01b606082015260800190565b60208082526032908201527f4f6e6c7920556e6c696d6974656420616e642054696d65642041756374696f6e6040820152711cc818d85b88189948119a5b985b1a5cd95960721b606082015260800190565b6000602082840312156134e657600080fd5b81516001600160401b038111156134fc57600080fd5b8201601f8101841361350d57600080fd5b805161351b612ad382612a8d565b81815285602083850101111561353057600080fd5b6135418260208301602086016129b3565b95945050505050565b6001600160a01b03868116825285166020820152604081018490526060810183905260a060808201819052600090613584908301846129e3565b979650505050505050565b6020808252602e908201527f496e697469616c697a61626c653a20636f6e747261637420697320616c72656160408201526d191e481a5b9a5d1a585b1a5e995960921b606082015260800190565b600080604083850312156135f057600080fd5b82516135fb81612a22565b6020939093015192949293505050565b6020808252602b908201527f496e697469616c697a61626c653a20636f6e7472616374206973206e6f74206960408201526a6e697469616c697a696e6760a81b606082015260800190565b60006001820161366857613668613215565b5060010190565b7f416363657373436f6e74726f6c3a206163636f756e74200000000000000000008152600083516136a78160178501602088016129b3565b7001034b99036b4b9b9b4b733903937b6329607d1b60179184019182015283516136d88160288401602088016129b3565b01602801949350505050565b6000816136f3576136f3613215565b506000190190565b634e487b7160e01b600052602160045260246000fdfea2646970667358221220d8aa45725b1dbc945c9941d2512e368b0cf8a399710348270d5bcedca7ca1f0064736f6c634300080e0033",
    "linkReferences": {},
    "deployedLinkReferences": {}
}